:020000040800F2
:10000000500502200D020008630F00085F0F000872
:10001000610F0008550200083515000800000000B7
:10002000000000000000000000000000890F000830
:10003000D902000800000000870F00081110000816
:1000400027020008270200082702000827020008EC
:1000500027020008270200082702000827020008DC
:1000600027020008270200082702000827020008CC
:1000700027020008270200082702000827020008BC
:1000800027020008270200082702000827020008AC
:10009000270200082702000827020008270200089C
:1000A000270200082702000827020008270200088C
:1000B000270200082702000827020008270200087C
:1000C000270200082702000827020008270200086C
:1000D00027020008F1140008270200082702000880
:1000E000270200082702000827020008270200084C
:1000F000270200082702000827020008270200083C
:10010000270200082702000827020008270200082B
:10011000270200082702000827020008270200081B
:10012000270200082702000827020008270200080B
:1001300027020008270200082702000827020008FB
:1001400027020008270200082702000827020008EB
:1001500027020008270200082702000827020008DB
:1001600027020008270200082702000827020008CB
:1001700027020008270200082702000800000000EC
:1001800027020008270200082702000827020008AB
:10019000270200082702000827020008270200089B
:1001A000270200082702000827020008270200088B
:1001B000270200082702000827020008270200087B
:1001C000270200082702000800000000270200089C
:1001D000270200082702000827020008270200085B
:1001E000270200082702000827020008270200084B
:1001F0002702000827020008DFF80CD000F018F8EA
:1002000000480047B1150008500502200648804705
:1002100006480047FEE7FEE7FEE7FEE7FEE7FEE7EB
:10022000FEE7FEE7FEE7FEE715100008F90100080B
:10023000064C074D06E0E06840F0010394E8070033
:1002400098471034AC42F6D3FFF7DAFFC416000823
:10025000E4160008FEE70000F0B5BFF34F8FBFF3D0
:100260006F8F1C4A00201A4910600A6842F400325D
:100270000A60BFF34F8FBFF36F8F154A7032106063
:10028000BFF34F8F101F134D43F6FF7410350068F6
:10029000C0F34E32C0F3C90304EA4216184600BF49
:1002A00046EA80772F60401EFAD2521EF4D2BFF386
:1002B0004F8F086840F480300860BFF34F8FBFF362
:1002C0006F8F04484C30016841F004010160F0BDBB
:1002D00014ED00E050EF00E0704701B50098411EBA
:1002E0000091FBD208BD90F83510022903D080217F
:1002F000416501207047052180F8351000680168CC
:1003000021F0010101600020704700002DE9F84F45
:10031000DFF89CE100224FF001084FF0030B4FF093
:100320000F0A00BF0B6808FA02F42340A34271D100
:100330004D68022D01D0122D0FD1D5080E69570737
:1003400000EB8505A9462D6AFF0E0AFA07FCBE40A0
:1003500025EA0C052E43C9F820600F795500066880
:100360000BFA05FC07F0030726EA0C06AF403743FB
:1003700007604E68012E05D0022E03D0112E01D049
:10038000122E0ED18668CF6826EA0C06AF4037439E
:10039000876046680F79A643C7F300179740374335
:1003A0004760C4688E6824EA0C04AE402643C660E9
:1003B0004C68E40075D53F4C256845F480452560C0
:1003C000246822F00306950704F4804400943A4C14
:1003D0002D0F2644D6F80848DFF8E0C00AFA05F7E2
:1003E000604524EA070401D100272EE0344FB842CB
:1003F00001D1012729E0334FB84201D1022724E07F
:10040000314FB84201D103271FE0304FB84202D12B
:1004100004271AE045E02E4FB84201D1052714E029
:100420002C4FB84201D106270FE02B4FB84201D123
:1004300007270AE0294FB84201D1082705E0284FD5
:10044000B84201D1092700E00A27AF40274375468B
:10045000C6F808784E68DEF80040F60324EA030484
:1004600000D51C43124E2C60361D4D683468AD0318
:1004700024EA030400D51C430D4F346008374D684F
:100480003C68ED0224EA030400D51C43084D3C609F
:100490000C354E682C68B60224EA030400D51C43D0
:1004A0002C60521C102AFFF43DAFBDE8F88F00000D
:1004B000003C01404438024000300140000002404E
:1004C0000004024000080240000C024000100240FC
:1004D0000014024000180240001C024000200240AC
:1004E000002402400AB1816170470904FBE7000063
:1004F00001480068704700000000022002480168BF
:10050000491C01607047000000000220074810B538
:10051000016841F400710160052000F049F80F20E6
:1005200000F006F800F018F8002010BD003C024072
:10053000084910B504464FF47A700968B1FBF0F031
:1005400000F04AFB00222146501E00F011F8002066
:1005500010BD0000040002207047410900F01F0296
:100560008900012001F1E0219040C1F800017047AD
:100570000E4BF0B41B680D46C3F30223C3F107060C
:10058000042E00D90426191D072901D2002300E0FA
:10059000DB1E012404FA06F19C40491E2940641E1A
:1005A000994014402143F0BC00F0DCBC0CED00E0AD
:1005B000064900F0070210B54FF6FF040868044B27
:1005C000204040EA02201843086010BD0CED00E016
:1005D0000000FA051848F8B5016841F08051016043
:1005E0000068164C00F080500090206840F4803085
:1005F0002060FFF77DFF4FF47A76054605E000BFE7
:10060000FFF776FF401BB0420FD86068C003F7D5F4
:10061000206840F400302060FFF76AFF054606E0DE
:10062000FFF766FF401BB04201D90320F8BD6068A8
:100630008003F5D50020F8BD40380240007000402E
:100640002DE9F047DFF84C8105460E46D8F800004A
:1006500000F00F00B0420CD2D8F8001021F00F01CA
:100660003143C8F80010D8F8000000F00F00B04285
:1006700065D12878484C800705D5A968206820F006
:10068000F000084320602878C00747D042496868D6
:100690000839012816D00968022816D089070029D0
:1006A0004DDA216821F0030101432160FFF720FFAB
:1006B0006968074641F2883001290FD00229814636
:1006C00019D027E009688903E9E78901E7E700BF56
:1006D000FFF70EFFC11B494501D918E0814620688C
:1006E000C0F381000128F3D118E000BFFFF700FF3D
:1006F000C11B49450BD82068C0F381000228F5D101
:100700000CE000BFFFF7F4FEC11B494502D90320EE
:10071000BDE8F087206810F00C0FF3D1D8F8001076
:10072000404601F00F01B1420BD9016821F00F01E1
:1007300031430160006800F00F00B04201D0012099
:10074000E6E72878400705D5E968206820F4E050FE
:10075000084320602878000706D52869216821F41D
:10076000604141EAC000206000F04CF82168F022AE
:1007700092FAA2F201F0F001B2FA82F2D140074AF5
:10078000515CC840064908600F20FFF7D1FE0020E9
:10079000BEE70000003C024008380240AC160008EA
:1007A0000400022008484FF4E052016892FAA2F2D5
:1007B000064801F4E051B2FA82F2D140044A0068DE
:1007C000515CC84070470000083802400400022015
:1007D000BC16000808484FF46042016892FAA2F281
:1007E000064801F46041B2FA82F2D140044A00683E
:1007F000515CC840704700000838024004000220E5
:10080000BC1600081D4930B51D48096811F00C01DF
:100810001AD01C4B042916D0082915D1174947F6C0
:10082000C072091F0C680D6804F03F046D020CD5FE
:100830000D68B3FBF4F092FAA2F31540B3FA83F219
:10084000D54068430BE0184630BD0B68B0FBF4F0B0
:1008500092FAA2F41340B4FA84F2D34058430968E0
:100860004FF4403292FAA2F201F44031B2FA82F22D
:10087000D140491C4900B0FBF1F030BD08380240BE
:100880000024F40040787D012DE9F84FCA4F054659
:100890000078A7F10409A9F10404C0074AD0386818
:1008A000C0F38100012808D03868C0F38100022815
:1008B0000AD1D9F80000400206D52068800339D556
:1008C0006868002875D035E06868B0F5803F0BD0C7
:1008D00010B1B0F5A02F11D0206820F48030206036
:1008E000206820F4802002E0206840F480302060FE
:1008F000686890B1FFF7FCFD06460AE0206840F406
:1009000080202060F0E700BFFFF7F2FD801B642825
:1009100074D820688003F7D50CE0FFF7E9FD0646A0
:1009200005E000BFFFF7E4FD801B6428F0D82068D5
:100930008003F7D42878800744D538684FF0F8084A
:1009400010F00C0F08D03868C0F3810002280AD1DB
:10095000D9F80000400206D42068800716D5E86860
:10096000012826D112E0E868002820681AD040F05B
:1009700001002060FFF7BCFD064604E0FFF7B8FD6C
:10098000801B0228C4D820688007F7D52869226810
:1009900098FAA8F1B1FA81F1884022F0F8010143F8
:1009A00021600FE020F001002060FFF7A1FD064666
:1009B00005E0FEE0FFF79CFD801B02281ED82068A2
:1009C0008007F7D42878000729D57B4869696C30FF
:1009D00000298046016812D041F001010160FFF753
:1009E00087FD064605E000BFFFF782FD801B022859
:1009F00004D8D8F800008007F6D510E07EE021F09A
:100A000001010160FFF774FD064604E0FFF770FD89
:100A1000801B022872D8D8F800008007F6D4287806
:100A2000400756D564483830016841F08051016074
:100A30000068DFF8888100F080500090D8F800103E
:100A400041F48071C8F80010FFF752FD064604E03B
:100A5000FFF74EFD801B642850D8D8F80000C00571
:100A6000F6D5554EA868683601280AD008B1052881
:100A700013D0306820F001003060306820F00400AE
:100A800002E0306840F001003060A86841F2883A26
:100A900090B1FFF72DFD80460AE0306840F0040079
:100AA0003060EEE7FFF724FDA0EB0801514578D850
:100AB00030688007F6D50CE0FFF71AFD804605E0A8
:100AC000FFF716FDA0EB080151456AD83068800792
:100AD000F6D4A869E8B33968C1F38101022968D066
:100AE0000228206820F08070206003D0FFF700FD0E
:100AF000054659E0FFF7FCFC064606E051E000BF62
:100B0000FFF7F6FC801B02284BD820688001F7D441
:100B1000D5E9091247F6C0704FF0FF374FF4403661
:100B200090FAA0F396FAA6F607EB5202B3FA83F313
:100B3000D5E9070CB6FA86F899404FF0706702FACB
:100B400008F297FAA7F711434FF0E04640EA0C008D
:100B500000E02CE0D5E90B3296FAA6F5B7FA87F754
:100B6000B5FA85F5BB400843AA4018431043C9F8BD
:100B70000000206840F080702060FFF7B9FC054657
:100B800005E000BFFFF7B4FC401B022809D820682D
:100B90008001F7D50BE000BFFFF7AAFC401B02283D
:100BA00002D90320BDE8F88F20688001F4D400202A
:100BB000F8E70120F6E70000083802400070004026
:100BC00004284FF0E020016903D021F00401016105
:100BD000704741F00401FAE7401EB0F1807F10B584
:100BE00001D3012010BD4FF0E02460610F21601798
:100BF00000F0B8F90020A0610721216110BD704705
:100C000090F8691090F86A000843704770B5016861
:100C10000446C8690A688B6810F00F0F5CD040F278
:100C200001152B426BD0C50707D0D50505D5012589
:100C30000D62E16E41F00101E166810708D5D90737
:100C400006D0256802212962E16E41F00401E166C7
:100C5000410708D5D90706D0256804212962E16E2D
:100C600041F00201E16601070CD502F0200103F01A
:100C70000103194306D0236808211962E16E41F08F
:100C80000801E166E16E002932D0800604D59006A5
:100C900002D5204600F092FAE06E000703D42068E7
:100CA0008068400625D5204600F07AFA20688168E1
:100CB00049061AD5816821F040018160606EA0B1BB
:100CC0002F490165606EFFF70EFB002810D0606EA3
:100CD000016DBDE870400847830610D593060ED518
:100CE0002046BDE8704000F069BA2046FFF787FF54
:100CF00070BD2046FFF783FF0020E06670BD03064D
:100D00002FD513062DD594F869002128F6D1B4F813
:100D1000520020B1A068B0F5805F0AD00BE00868EF
:100D200020F0800008602068016841F04001016007
:100D300070BD206960B1E06C411CE16421680078FD
:100D4000C1F82800B4F85200401EA4F8520070BD4B
:100D5000E06C0088C0F308008862E06C801CE064EE
:100D6000F0E74006F3D55006F1D50B682022204667
:100D700023F040030B6084F8692000F0EFF870BDA9
:100D80008D11000810B5040003D094F8690010B16B
:100D900007E0012010BD002084F86800204600F024
:100DA00027F8242084F869002068016821F00101F7
:100DB0000160204600F03EFA0128EBD0606A10B1D5
:100DC000204600F051F92068416821F490414160CB
:100DD0002068816821F02A0181602068016841F063
:100DE000010101602046BDE8104000F0A1B90000FB
:100DF00010B5006886B01A4988422ED1194801689A
:100E000041F001010160006800F001000590154803
:100E10001430016841F01001016000680122124C99
:100E2000072300F010000590022004930102CDE991
:100E30000010CDE9022069462046FFF767FA201529
:100E4000694600902046FFF761FA2520FFF785FBF1
:100E5000032225201146FFF78BFB06B010BD0000D2
:100E600000100140303802400000024010B590F8F8
:100E70006A30202B44D1C9B1C2B190F86830012B3F
:100E80003ED08368012441654FF0FF0180F868403F
:100E9000B3F5805FA0F85820A0F85A2008D04FF092
:100EA0007F0253B1B3F1805F0CD011E0012010BD7F
:100EB000026922B940F2FF1101E0036933B9A0F8D9
:100EC0005C1005E0016909B13F21F8E7A0F85C205A
:100ED00000212222C16680F86A2080F8681001682B
:100EE0000A6842F480720A6001688A6842F001026E
:100EF0008A600068016841F020010160002010BD97
:100F0000022010BD30B50068114988420CD111484B
:100F100041880A0408D402464FF000034C041278BA
:100F200006D50A2A01D0438030BD41F400410DE0CE
:100F30000D2A09D0084DC1F30D04491C89B2C729F7
:100F40002A554180EFD830BD41F48041418030BD09
:100F5000001001400C000220140002207047FEE740
:100F6000FEE77047090700284FEA116106DA00F032
:100F70000F0000F1E02080F8141D704700F1E02020
:100F800080F800147047704770470000F0B51E4CA1
:100F900093B0256845F080552560246804F080549E
:100FA00012941A4C256845F44045256024680DF1DB
:100FB000240C012504F440441294022406948CE885
:100FC0000D00E60368466705CDE90771CDE90056D7
:100FD000FFF75AFC00B1FEE7FFF7FCFA00B1FEE7AD
:100FE0000FAD00214FF4A0524FF4805385E80E005E
:100FF0000F20CDE90D0407210DA8FFF721FB0028E4
:1010000000D0FEE713B0F0BD403802400070004051
:10101000FFF774BA104A30B51048146800210F4B1E
:1010200044F470041460083305680D4A0D4C45F013
:101030000105056019600368051D1340074A036038
:101040000C322C600568E305034C25F4802505600F
:10105000803C1160236030BD88ED00E00038024024
:10106000FFFFF6FE1030002490F82410C90706D0C8
:101070000168836A4A6822F400321A434A6090F891
:101080002410890706D50168C36A4A6822F48032B1
:101090001A434A6090F82410490706D50168036B8B
:1010A0004A6822F480221A434A6090F82410090703
:1010B00006D50168436B4A6822F400421A434A602D
:1010C00090F82410C90606D50168836B8A6822F45B
:1010D00080521A438A6090F82410890606D5016868
:1010E000C36B8A6822F400521A438A6090F8241075
:1010F000490611D50168036C4A6822F480121A432C
:101100004A60016CB1F5801F06D10168436C4A68E2
:1011100022F4C0021A434A6090F82410090606D54A
:101120000168826C486820F40020104348607047D2
:10113000F8B500260446C666FFF7DAF905462068CA
:101140006FF07E470068000708D500222B464FF459
:1011500000112046009700F099F960B920680068F6
:1011600040070AD500222B464FF480012046009705
:1011700000F08CF908B10320F8BD202084F8690044
:1011800084F8686084F86A000020F8BD10B5806BB0
:101190000021A0F85A10A0F85210FFF730FD10BD42
:1011A000016820220B6823F490730B6001688B6840
:1011B00023F001038B6080F86A20704710B590F827
:1011C0006A10B0F85C202229016805D0886940F0D7
:1011D00008008861022010BD8368B3F5805F01D1EB
:1011E000036973B14B6A416D13404A1C42650B7031
:1011F000B0F85A10491E0904090CA0F85A1008D07A
:1012000016E04B6A416D13400B80416D891C4165AE
:10121000EEE7016820220B6823F490730B600168ED
:101220008B6823F001038B6080F86A20FFF76AFE69
:10123000002010BD2DE9F04704468068874B884F99
:101240002668D4E90415E2690843D6F800C01021E5
:1012500015430022284315460CEA030C814B4CEA47
:10126000000CC6F800C04FF400492068D4F80CC048
:10127000466826F4405646EA0C0646602668D4F8CE
:101280002080A069D6F808C040EA08002CF4306C31
:101290004CEA000CC6F808C02068B8420AD11B68A6
:1012A00013F0030352D0012B7AD0022B76D0032BFC
:1012B00079D177E06C4EB0420AD11B6813F00C0371
:1012C0006AD0042B6CD0082B68D00C2B6BD169E052
:1012D000664EB0420AD11B6813F030035CD0102B6D
:1012E0005ED0202B5AD0302B5DD15BE0604EB042F7
:1012F0000AD11B6813F0C0034ED0402B50D0802B76
:101300004CD0C02B4FD14DE05A4EB0420DD11B688E
:1013100013F4407340D0B3F5807F41D0B3F5007F24
:101320003CD0B3F5407F3ED13CE0534EB0420FD1AC
:101330001B6813F4406309D0B3F5806F30D0B3F568
:10134000006F2BD0B3F5406F2DD12BE001212AE0A7
:101350004A4EB0420DD11B6813F440531CD0B3F574
:10136000805F1DD0B3F5005F18D0B3F5405F1AD190
:1013700018E0434EB04216D11B6813F440430BD023
:10138000B3F5804F0CD04B4508D0B3F5404F0AD190
:1013900008E005E002E0FFE7002104E0022102E0AE
:1013A000042100E00821E6694E452AD109291FD20F
:1013B000DFE801F00508141E171E1E1E1A00FFF7B5
:1013C000F1F901E0FFF706FA0146D4F804004900FC
:1013D00001EB5001B1FBF0F082B20AE029496068EC
:1013E000F6E7FFF70FFAEFE760684FF48031EFE7B9
:1013F0000125216822F00F00C2F342021043C860A9
:1014000028E0092925D2DFE801F005080B24102483
:1014100024241C00FFF7C6F909E0FFF7DBF906E01A
:101420006168194A02EB51020EE0FFF7EBF9014641
:10143000D4E9002001EB5001B1FBF0F080B2D060A4
:1014400008E0616809EB5102B2FBF1F189B2C160B9
:1014500000E001252846BDE8F0870000F369FFEFB2
:101460000010014090380240004400400048004015
:10147000004C004000500040001401400078004043
:10148000007C00400048E8010024F4002DE9F04110
:10149000984617460E460446069D1DE0681C1BD064
:1014A0002DB1FFF725F8A0EB0800A84214D321685E
:1014B000202000220B6823F4D0730B6021688B6816
:1014C00023F001038B6084F8690084F86A0003202C
:1014D00084F86820BDE8F0812068C06936EA000021
:1014E00004D00020B842D9D00020F3E70120F9E76A
:1014F00070B50D4D00240D48FFF788FB02E0641C19
:10150000AC4204D80948FFF77BFB2028F7D1002420
:1015100002E0641CAC4206D8054901220348FFF7EB
:10152000A5FC0028F5D170BDFFFF0100DC00022002
:101530000C000220FEE70000014A024900F013B847
:101540009D1500081000022002E008C8121F08C103
:10155000002AFAD170477047002001E001C1121F34
:10156000002AFBD170472DE9F04116460F4604468C
:10157000002503E03946B047641C6D1C2078002824
:10158000F8D12846BDE8F08110B504460420FFF7E5
:1015900017FB0148046010BD080002200349CA6916
:1015A0005206FCD5C2B28A627047000000100140AA
:1015B00086B0FEF751FEFEF7A9FF0923022219218A
:1015C0004FF4D870FFF7E2FC2448016841F00201B3
:1015D0000160006800F002000590D820FFF7D4FFFA
:1015E0004FF4E13000F046F803201D4D0121CDE914
:1015F0000210CDE9000169462846FEF787FE6FF02C
:101600007E4418A0FFF798FF012228461146FEF7F6
:1016100069FF2046FEF761FE13A0FFF78DFF002251
:1016200028460121FEF75EFF2046FEF756FE0FA07A
:10163000FFF782FF012228460221FEF753FF2046D2
:10164000FEF74BFE0AA0FFF777FF00222846022193
:10165000FEF748FF2046FEF740FED2E73038024052
:1016600000040240310D0A00320D0A00330D0A0059
:10167000340D0A000B49002210B5094C0C230C60F4
:10168000C1E90102CA6008460A61C1E90532FFF7F3
:1016900079FBBDE81040044901220248FFF7E6BB90
:1016A00000100140DC0002200C00022000000000BD
:1016B0000000000001020304060708090000000002
:1016C00001020304E41600080000022014000000D8
:1016D00048150008F8160008140002203C05000018
:1016E00058150008000000000024F400000000006D
:0816F0000000000000000000F2
:04000005080001F9F5
:00000001FF
