:020000040800F2
:10000000480502200D020008E3130008DF13000872
:10001000E113000871070008B51A0008000000008D
:1000200000000000000000000000000009140008AB
:100030007307000800000000071400080B140008F4
:1000400027020008270200082702000827020008EC
:1000500027020008270200082702000827020008DC
:1000600027020008270200082702000827020008CC
:1000700027020008270200082702000827020008BC
:1000800027020008270200082702000827020008AC
:10009000270200082702000827020008270200089C
:1000A000270200082702000827020008270200088C
:1000B000270200082702000827020008270200087C
:1000C000270200082702000827020008270200086C
:1000D00027020008711A00082702000827020008FA
:1000E000270200082702000827020008270200084C
:1000F000270200082702000827020008270200083C
:10010000270200082702000827020008270200082B
:10011000270200082702000827020008270200081B
:10012000270200082702000827020008270200080B
:1001300027020008270200082702000827020008FB
:1001400027020008270200082702000827020008EB
:1001500027020008270200082702000827020008DB
:1001600027020008270200082702000827020008CB
:1001700027020008270200082702000800000000EC
:1001800027020008270200082702000827020008AB
:10019000270200082702000827020008270200089B
:1001A000270200082702000827020008270200088B
:1001B000270200082702000827020008270200087B
:1001C000270200082702000800000000270200089C
:1001D000270200082702000827020008270200085B
:1001E000270200082702000827020008270200084B
:1001F0002702000827020008DFF80CD000F018FAE8
:1002000000480047D12300084805022006488047DF
:1002100006480047FEE7FEE7FEE7FEE7FEE7FEE7EB
:10022000FEE7FEE7FEE7FEE795150008F901000886
:1002300030B50B46014600202022012409E021FAB6
:1002400002F59D4205D303FA02F5491B04FA02F5B3
:100250002844151EA2F10102F1DC30BD2DE9F05F4A
:100260000546002092469B46884606468146402425
:100270001BE0284641464746224600F0FAF953461D
:100280005A46C01A914110D311461846224600F032
:10029000E1F92D1A67EB01084F46224601200021A3
:1002A00000F0D8F917EB00094E41201EA4F101041B
:1002B000DFDC484631462A464346BDE8F09F2DE93B
:1002C000FE4F804681EA0300C00F0C46009021F0EB
:1002D000004123F00045B8EB0200A94105D2404699
:1002E000214690461C460B46024623F00040104330
:1002F00047D0270DC7F30A00C3F30A510290401AF2
:10030000019040286BDAC3F3130040F4801B00987F
:10031000924620B10023D2EB030A63EB0B0B01984A
:100320005946C0F14002504600F094F906460D4689
:1003300050465946019A00F0ACF910EB08006141B3
:10034000002487EA115284EAE7731A4340D0009AE6
:1003500062B3019A012A4FEA075215DC001B61EBD8
:1003600002014FF0004202EA0752CDE90042001CB0
:1003700041F5801132462B4600F0ACF903B0BDE8E0
:10038000F08F40462146F9E7001B61EB0201001C9B
:1003900041F5801300185B412018A2F5001747EBC8
:1003A000030140EAD570B6196D4111E06D084FEABE
:1003B000360645EAC0754FEA0752001B61EB0201A1
:1003C000001C41F5801149084FEA300000195141E5
:1003D00032462B4603B0BDE8F04F00F06CB90098F0
:1003E000012240000023D0EB020263EBE07300988F
:1003F00021464FEAE074B8EB000061EB0401E9E745
:1004000083F000435BE781F0004158E72DE9FE4FA0
:1004100081EA030404F0004421F0004100944FF00D
:10042000000B23F0004350EA01045ED052EA0304BB
:100430005BD0C3F30A54C1F30A552C44A4F2F3343D
:100440000194A0FB0254C1F3130141F48011C3F3E2
:10045000130343F4801301FB024400FB034E840AA0
:10046000970A44EA815447EA8357A4FB0768029538
:100470008D0A05FB07854FEA932C04FB0C542705D6
:10048000029D4FEA065847EA1637B5EB08056EEBB2
:10049000070C870E920E47EA811742EA8312A7FBE8
:1004A0000201B6EB0B0164EB00042B0D43EA0C33A5
:1004B0005E1844EB1C50DA465146E7FB0201C5F3D7
:1004C00013044FEA0B3343EA14534FEA0432019CFE
:1004D00043EA0603A4F10C040294009CCDE900B4A5
:1004E00000F0F8F803B0BDE8F08F00200146F9E70E
:1004F0002DE9F04D81EA030404F0004B21F00045A2
:1005000014464FF0000A23F0004150EA050220D0C3
:1005100054EA01021DD0C5F30A570246C5F313037E
:10052000C1F31300C1F30A5640F4801543F480135D
:10053000A7EB0608101BD64608F2FD3873EB050042
:1005400002D308F1010801E092185B41B8F1000FF5
:1005500003DA00200146BDE8F08D00204FF4801141
:10056000064684460EE0171B73EB050705D3121BE6
:1005700063EB050306434CEA010C49084FEA3000DF
:1005800092185B4150EA0107EDD152EA030012D004
:1005900082EA040083EA0501084305D0101BAB4141
:1005A00006D20122002306E000224FF0004302E0C1
:1005B0006FF0010253101AEB06004CEB085110EBE0
:1005C0000A0041EB0B01BDE8F04D00F074B8C1F337
:1005D0000A52C1F3130140F2FF3341F480119A42F1
:1005E00002DA00200146704740F233439A42A2F2F9
:1005F000334202DC524200F03CB800F02BB800005D
:1006000030B5041E71F1000404DB4FF00044404299
:1006100064EB0101141E73F1000405DB1C464FF06E
:100620000043524263EB0403994208BF904230BD3D
:10063000064C074D06E0E06840F0010394E807002F
:1006400098471034AC42F6D3FFF7DAFD28250008AE
:1006500048250008202A04DB203A00FA02F1002095
:1006600070479140C2F1200320FA03F319439040F0
:100670007047202A04DB203A21FA02F0002170475B
:1006800021FA02F3D040C2F12002914008431946FA
:100690007047202A06DBCB17203A41FA02F043EAE2
:1006A000E07306E041FA02F3D040C2F1200291402B
:1006B00008431946704710B5141E73F1000408DA98
:1006C000401C41F1000192185B411A4301D120F016
:1006D000010010BD2DE9F04D92469B4611B1B1FAD3
:1006E00081F202E0B0FA80F220329046FFF7B2FFCA
:1006F00004460F4640EA0A0041EA0B0153465A46B7
:10070000084313D0114653EA010019D0C8F1400242
:100710005046FFF7AEFF05460E4650465946424644
:10072000FFF798FF084305D0012004E02046394632
:10073000BDE8F08D0020054346EAE0762C433743C0
:100740000A986305E40AA0EB08000022FD0A44EAC7
:1007500047540A3002D500200146E9E70105101987
:100760006941DDE9084500196941BDE8F04DA2E79E
:10077000FEE7704701B50098411E0091FBD208BD0D
:1007800090F83510022903D080214165012070477F
:10079000052180F835100068016821F00101016031
:1007A000002070472DE9F84FDFF89CE100224FF060
:1007B00001084FF0030B4FF00F0A00BF0B6808FA57
:1007C00002F42340A34271D14D68022D01D0122DB5
:1007D0000FD1D5080E69570700EB8505A9462D6A8C
:1007E000FF0E0AFA07FCBE4025EA0C052E43C9F8A5
:1007F00020600F79550006680BFA05FC07F0030727
:1008000026EA0C06AF40374307604E68012E05D03C
:10081000022E03D0112E01D0122E0ED18668CF6881
:1008200026EA0C06AF403743876046680F79A64337
:10083000C7F30017974037434760C4688E6824EABF
:100840000C04AE402643C6604C68E40075D53F4CAE
:10085000256845F480452560246822F00306950745
:1008600004F4804400943A4C2D0F2644D6F80848EE
:10087000DFF8E0C00AFA05F7604524EA070401D171
:1008800000272EE0344FB84201D1012729E0334F31
:10089000B84201D1022724E0314FB84201D10327E9
:1008A0001FE0304FB84202D104271AE045E02E4F36
:1008B000B84201D1052714E02C4FB84201D10627D8
:1008C0000FE02B4FB84201D107270AE0294FB84269
:1008D00001D1082705E0284FB84201D1092700E0DF
:1008E0000A27AF4027437546C6F808784E68DEF8F9
:1008F0000040F60324EA030400D51C43124E2C608A
:10090000361D4D683468AD0324EA030400D51C434A
:100910000D4F346008374D683C68ED0224EA03044B
:1009200000D51C43084D3C600C354E682C68B6025F
:1009300024EA030400D51C432C60521C102AFFF447
:100940003DAFBDE8F88F0000003C01404438024054
:100950000030014000000240000402400008024054
:10096000000C024000100240001402400018024037
:10097000001C024000200240002402400AB18161B4
:1009800070470904FBE70000014800687047000059
:100990000000022002480168491C01607047000005
:1009A00000000220074810B5016841F400710160A1
:1009B000052000F049F80F2000F006F800F018F8C4
:1009C000002010BD003C0240084910B504464FF419
:1009D0007A700968B1FBF0F000F03EFB002221467E
:1009E000501E00F011F8002010BD0000040002208D
:1009F0007047410900F01F028900012001F1E02148
:100A00009040C1F8000170470E4BF0B41B680D46D2
:100A1000C3F30223C3F10706042E00D90426191DCF
:100A2000072901D2002300E0DB1E012404FA06F1AD
:100A30009C40491E2940641E994014402143F0BC4B
:100A400000F0D0BC0CED00E0064900F0070210B544
:100A50004FF6FF040868044B204040EA0220184388
:100A6000086010BD0CED00E00000FA051848F8B56C
:100A7000016841F0805101600068164C00F0805020
:100A80000090206840F480302060FFF77DFF4FF435
:100A90007A76054605E000BFFFF776FF401BB042BF
:100AA0000FD86068C003F7D5206840F4003020609C
:100AB000FFF76AFF054606E0FFF766FF401BB042FE
:100AC00001D90320F8BD60688003F5D50020F8BD8A
:100AD00040380240007000402DE9F047DFF84C81BB
:100AE00005460E46D8F8000000F00F00B0420CD2C8
:100AF000D8F8001021F00F013143C8F80010D8F8E1
:100B0000000000F00F00B04265D12878484C800703
:100B100005D5A968206820F0F000084320602878F7
:100B2000C00747D0424968680839012816D00968CB
:100B3000022816D0890700294DDA216821F0030127
:100B400001432160FFF720FF6968074641F28830C2
:100B500001290FD00229814619D027E009688903AD
:100B6000E9E78901E7E700BFFFF70EFFC11B494531
:100B700001D918E081462068C0F381000128F3D133
:100B800018E000BFFFF700FFC11B49450BD82068E4
:100B9000C0F381000228F5D10CE000BFFFF7F4FE9E
:100BA000C11B494502D90320BDE8F087206810F039
:100BB0000C0FF3D1D8F80010404601F00F01B142FC
:100BC0000BD9016821F00F0131430160006800F08A
:100BD0000F00B04201D00120E6E72878400705D594
:100BE000E968206820F4E050084320602878000776
:100BF00006D52869216821F4604141EAC0002060DF
:100C000000F04CF82168F02292FAA2F201F0F00113
:100C1000B2FA82F2D140074A515CC84006490860E6
:100C20000F20FFF7D1FE0020BEE70000003C02408D
:100C3000083802400F2500080400022008484FF43D
:100C4000E052016892FAA2F2064801F4E051B2FAC9
:100C500082F2D140044A0068515CC84070470000ED
:100C600008380240040002201F25000808484FF4FD
:100C70006042016892FAA2F2064801F46041B2FAB9
:100C800082F2D140044A0068515CC84070470000BD
:100C900008380240040002201F2500081D4930B515
:100CA0001D48096811F00C011AD01C4B042916D0FC
:100CB000082915D1174947F6C072091F0C680D683D
:100CC00004F03F046D020CD50D68B3FBF4F092FA0A
:100CD000A2F31540B3FA83F2D54068430BE01846FF
:100CE00030BD0B68B0FBF4F092FAA2F41340B4FAF2
:100CF00084F2D340584309684FF4403292FAA2F28A
:100D000001F44031B2FA82F2D140491C4900B0FBF3
:100D1000F1F030BD083802400024F40040787D0135
:100D20002DE9F84FCA4F05460078A7F10409A9F14B
:100D30000404C0074AD03868C0F38100012808D0F5
:100D40003868C0F3810002280AD1D9F800004002B7
:100D500006D52068800339D56868002875D035E04D
:100D60006868B0F5803F0BD010B1B0F5A02F11D05E
:100D7000206820F480302060206820F4802002E089
:100D8000206840F480302060686890B1FFF7FCFD77
:100D900006460AE0206840F480202060F0E700BFAB
:100DA000FFF7F2FD801B642874D820688003F7D514
:100DB0000CE0FFF7E9FD064605E000BFFFF7E4FDA4
:100DC000801B6428F0D820688003F7D42878800737
:100DD00044D538684FF0F80810F00C0F08D0386888
:100DE000C0F3810002280AD1D9F80000400206D4DD
:100DF0002068800716D5E868012826D112E0E86847
:100E0000002820681AD040F001002060FFF7BCFDE8
:100E1000064604E0FFF7B8FD801B0228C4D820680E
:100E20008007F7D52869226898FAA8F1B1FA81F10C
:100E3000884022F0F801014321600FE020F001001A
:100E40002060FFF7A1FD064605E0FEE0FFF79CFDF0
:100E5000801B02281ED820688007F7D42878000756
:100E600029D57B4869696C3000298046016812D019
:100E700041F001010160FFF787FD064605E000BF74
:100E8000FFF782FD801B022804D8D8F800008007F5
:100E9000F6D510E07EE021F001010160FFF774FD5E
:100EA000064604E0FFF770FD801B022872D8D8F8D0
:100EB00000008007F6D42878400756D564483830BB
:100EC000016841F0805101600068DFF8888100F01E
:100ED00080500090D8F8001041F48071C8F80010DC
:100EE000FFF752FD064604E0FFF74EFD801B642825
:100EF00050D8D8F80000C005F6D5554EA868683619
:100F000001280AD008B1052813D0306820F001006C
:100F10003060306820F0040002E0306840F00100EA
:100F20003060A86841F2883A90B1FFF72DFD804605
:100F30000AE0306840F004003060EEE7FFF724FD7F
:100F4000A0EB0801514578D830688007F6D50CE051
:100F5000FFF71AFD804605E0FFF716FDA0EB08013C
:100F600051456AD830688007F6D4A869E8B3396873
:100F7000C1F38101022968D00228206820F0807026
:100F8000206003D0FFF700FD054659E0FFF7FCFCA9
:100F9000064606E051E000BFFFF7F6FC801B022882
:100FA0004BD820688001F7D4D5E9091247F6C07004
:100FB0004FF0FF374FF4403690FAA0F396FAA6F6BA
:100FC00007EB5202B3FA83F3D5E9070CB6FA86F8B9
:100FD00099404FF0706702FA08F297FAA7F71143A9
:100FE0004FF0E04640EA0C0000E02CE0D5E90B327F
:100FF00096FAA6F5B7FA87F7B5FA85F5BB40084328
:10100000AA4018431043C9F80000206840F08070DF
:101010002060FFF7B9FC054605E000BFFFF7B4FC10
:10102000401B022809D820688001F7D50BE000BFDB
:10103000FFF7AAFC401B022802D90320BDE8F88F65
:1010400020688001F4D40020F8E70120F6E70000D2
:101050000838024000700040401EB0F1807F10B59B
:1010600001D3012010BD4FF0E02460610F21601713
:1010700000F0B8F90020A0610721216110BD704780
:1010800090F8691090F86A000843704770B50168DD
:101090000446C8690A688B6810F00F0F5CD040F2F4
:1010A00001152B426BD0C50707D0D50505D5012505
:1010B0000D62E16E41F00101E166810708D5D907B3
:1010C00006D0256802212962E16E41F00401E16643
:1010D000410708D5D90706D0256804212962E16EA9
:1010E00041F00201E16601070CD502F0200103F096
:1010F0000103194306D0236808211962E16E41F00B
:101100000801E166E16E002932D0800604D5900620
:1011100002D5204600F012FBE06E000703D42068E1
:101120008068400625D5204600F0FAFA20688168DC
:1011300049061AD5816821F040018160606EA0B136
:101140002F490165606EFFF71BFB002810D0606E11
:10115000016DBDE870400847830610D593060ED593
:101160002046BDE8704000F0E9BA2046FFF787FF4F
:1011700070BD2046FFF783FF0020E06670BD0306C8
:101180002FD513062DD594F869002128F6D1B4F88F
:10119000520020B1A068B0F5805F0AD00BE008686B
:1011A00020F0800008602068016841F04001016083
:1011B00070BD206960B1E06C411CE1642168007879
:1011C000C1F82800B4F85200401EA4F8520070BDC7
:1011D000E06C0088C0F308008862E06C801CE0646A
:1011E000F0E74006F3D55006F1D50B6820222046E3
:1011F00023F040030B6084F8692000F0EFF870BD25
:101200000D17000810B5040003D094F8690010B160
:1012100007E0012010BD002084F86800204600F09F
:1012200027F8242084F869002068016821F0010172
:101230000160204600F0BEFA0128EBD0606A10B1D0
:10124000204600F0D1F92068416821F490414160C6
:101250002068816821F02A0181602068016841F0DE
:10126000010101602046BDE8104000F021BA0000F5
:1012700010B5006886B01A4988422ED11948016815
:1012800041F001010160006800F00100059015487F
:101290001430016841F01001016000680122124C15
:1012A000072300F010000590022004930102CDE90D
:1012B0000010CDE9022069462046FFF773FA201599
:1012C000694600902046FFF76DFA2520FFF791FB55
:1012D000032225201146FFF797FB06B010BD000042
:1012E00000100140303802400000024010B590F874
:1012F0006A30202B44D1C9B1C2B190F86830012BBB
:101300003ED08368012441654FF0FF0180F86840BA
:10131000B3F5805FA0F85820A0F85A2008D04FF00D
:101320007F0253B1B3F1805F0CD011E0012010BDFA
:10133000026922B940F2FF1101E0036933B9A0F854
:101340005C1005E0016909B13F21F8E7A0F85C20D5
:1013500000212222C16680F86A2080F868100168A6
:101360000A6842F480720A6001688A6842F00102E9
:101370008A600068016841F020010160002010BD12
:10138000022010BD30B50068114988420CD11148C7
:1013900041880A0408D402464FF000034C04127836
:1013A00006D50A2A01D0438030BD41F400410DE04A
:1013B0000D2A09D0084DC1F30D04491C89B2C72973
:1013C0002A554180EFD830BD41F48041418030BD85
:1013D0000010014008000220100002207047FEE7C4
:1013E000FEE77047090700284FEA116106DA00F0AE
:1013F0000F0000F1E02080F8141D704700F1E0209C
:1014000080F80014704770477047FFF7C3BA0000B8
:10141000F0B5BFF34F8FBFF36F8F1C4A00201A49FE
:1014200010600A6842F400320A60BFF34F8FBFF3C6
:101430006F8F154A70321060BFF34F8F101F134D1E
:1014400043F6FF7410350068C0F34E32C0F3C90391
:1014500004EA4216184600BF46EA80772F60401E15
:10146000FAD2521EF4D2BFF34F8F086840F4803096
:101470000860BFF34F8FBFF36F8F04484C30016893
:1014800041F004010160F0BD14ED00E050EF00E018
:10149000F0B5294C93B0256845F080552560246847
:1014A00004F080541294254C256845F4404525608D
:1014B00024680DF1200C022504F440441294012408
:1014C0008CE80F0026046846A705CDE90046CDE963
:1014D0000657FFF725FC044605E02049302203208B
:1014E00017A300F0D5FF002CF7D1FFF7BFFA044691
:1014F00005E01A493722032019A300F0C9FF002C88
:10150000F7D10FAC00214FF4A0524FF4805384E880
:101510000E000F20CDE90D0507210DA8FFF7DCFA1D
:10152000044605E00D494422032014A300F0B0FF57
:10153000002CF7D113B0F0BD4038024000700040DD
:1015400053797374656D20636C6F636B207365747E
:10155000206572726F72210A00000000FC240008EE
:10156000456E61626C65204F7665722044726976C3
:1015700065206572726F72210A0000005243432099
:10158000636C6F636B20736574206572726F722178
:101590000A000000104A30B51048146800210F4BB3
:1015A00044F470041460083305680D4A0D4C45F08E
:1015B0000105056019600368051D1340074A0360B3
:1015C0000C322C600568E305034C25F4802505608A
:1015D000803C1160236030BD88ED00E0003802409F
:1015E000FFFFF6FE1030002490F82410C90706D043
:1015F0000168836A4A6822F400321A434A6090F80C
:101600002410890706D50168C36A4A6822F480322B
:101610001A434A6090F82410490706D50168036B05
:101620004A6822F480221A434A6090F8241009077D
:1016300006D50168436B4A6822F400421A434A60A7
:1016400090F82410C90606D50168836B8A6822F4D5
:1016500080521A438A6090F82410890606D50168E2
:10166000C36B8A6822F400521A438A6090F82410EF
:10167000490611D50168036C4A6822F480121A43A6
:101680004A60016CB1F5801F06D10168436C4A685D
:1016900022F4C0021A434A6090F82410090606D5C5
:1016A0000168826C486820F400201043486070474D
:1016B000F8B500260446C666FFF766F905462068B9
:1016C0006FF07E470068000708D500222B464FF4D4
:1016D00000112046009700F099F960B92068006871
:1016E00040070AD500222B464FF480012046009780
:1016F00000F08CF908B10320F8BD202084F86900BF
:1017000084F8686084F86A000020F8BD10B5806B2A
:101710000021A0F85A10A0F85210FFF7B0FC10BD3D
:10172000016820220B6823F490730B6001688B68BA
:1017300023F001038B6080F86A20704710B590F8A1
:101740006A10B0F85C202229016805D0886940F051
:1017500008008861022010BD8368B3F5805F01D165
:10176000036973B14B6A416D13404A1C42650B70AB
:10177000B0F85A10491E0904090CA0F85A1008D0F4
:1017800016E04B6A416D13400B80416D891C416529
:10179000EEE7016820220B6823F490730B60016868
:1017A0008B6823F001038B6080F86A20FFF7EAFD65
:1017B000002010BD2DE9F04704468068874B884F14
:1017C0002668D4E90415E2690843D6F800C0102160
:1017D00015430022284315460CEA030C814B4CEAC2
:1017E000000CC6F800C04FF400492068D4F80CC0C3
:1017F000466826F4405646EA0C0646602668D4F849
:101800002080A069D6F808C040EA08002CF4306CAB
:101810004CEA000CC6F808C02068B8420AD11B6820
:1018200013F0030352D0012B7AD0022B76D0032B76
:1018300079D177E06C4EB0420AD11B6813F00C03EB
:101840006AD0042B6CD0082B68D00C2B6BD169E0CC
:10185000664EB0420AD11B6813F030035CD0102BE7
:101860005ED0202B5AD0302B5DD15BE0604EB04271
:101870000AD11B6813F0C0034ED0402B50D0802BF0
:101880004CD0C02B4FD14DE05A4EB0420DD11B6809
:1018900013F4407340D0B3F5807F41D0B3F5007F9F
:1018A0003CD0B3F5407F3ED13CE0534EB0420FD127
:1018B0001B6813F4406309D0B3F5806F30D0B3F5E3
:1018C000006F2BD0B3F5406F2DD12BE001212AE022
:1018D0004A4EB0420DD11B6813F440531CD0B3F5EF
:1018E000805F1DD0B3F5005F18D0B3F5405F1AD10B
:1018F00018E0434EB04216D11B6813F440430BD09E
:10190000B3F5804F0CD04B4508D0B3F5404F0AD10A
:1019100008E005E002E0FFE7002104E0022102E028
:10192000042100E00821E6694E452AD109291FD289
:10193000DFE801F00508141E171E1E1E1A00FFF72F
:101940007DF901E0FFF792F90146D4F8040049005F
:1019500001EB5001B1FBF0F082B20AE02949606866
:10196000F6E7FFF79BF9EFE760684FF48031EFE7A8
:101970000125216822F00F00C2F342021043C86023
:1019800028E0092925D2DFE801F005080B241024FE
:1019900024241C00FFF752F909E0FFF767F906E07D
:1019A0006168194A02EB51020EE0FFF777F9014630
:1019B000D4E9002001EB5001B1FBF0F080B2D0601F
:1019C00008E0616809EB5102B2FBF1F189B2C16034
:1019D00000E001252846BDE8F0870000F369FFEF2D
:1019E0000010014090380240004400400048004090
:1019F000004C0040005000400014014000780040BE
:101A0000007C00400048E8010024F4002DE9F0418A
:101A1000984617460E460446069D1DE0681C1BD0DE
:101A20002DB1FEF7B1FFA0EB0800A84214D3216846
:101A3000202000220B6823F4D0730B6021688B6890
:101A400023F001038B6084F8690084F86A000320A6
:101A500084F86820BDE8F0812068C06936EA00009B
:101A600004D00020B842D9D00020F3E70120F9E7E4
:101A700070B50D4D00240D48FFF708FB02E0641C13
:101A8000AC4204D80948FFF7FBFA2028F7D100241C
:101A900002E0641CAC4206D8054901220348FFF766
:101AA00025FC0028F5D170BDFFFF0100D800022001
:101AB00008000220FEE700000FB4054B10B503A993
:101AC000044A029800F0E2F810BC5DF814FB000034
:101AD000BD2300080C000220014B024A00F0D6B8DA
:101AE000BD2300080C00022002E008C8121F08C134
:101AF000002AFAD170477047002001E001C1121F8F
:101B0000002AFBD1704700002DE9FF5F82B0002161
:101B1000DDE90430020DDDF840B0034318D044F68F
:101B20001050A2F2FF3242431514119801281FD021
:101B3000A5EB0B00401C5FEA000A4FF000064E4F79
:101B4000DFF83891B046504615D5CAF1000413E0CD
:101B5000119801244AA3012801D16FEA0B010298D0
:101B6000119AC0E90031C0E9024206B0BDE8F09F19
:101B7000CBF10000DFE704460021404A491842EB60
:101B80000450CDE9001012E0E00707D032463B4692
:101B900040464946FEF73AFC8046894632463B4677
:101BA00010461946FEF732FC06460F466410002C1C
:101BB000EAD1DDE90401DDE90023BAF1000F06DA1C
:101BC000FEF724FC42464B46FEF720FC05E0FEF7FC
:101BD0008FFC42464B46FEF78BFC04460E46002225
:101BE000284BFEF70DFD03D84FF0FF30014607E00C
:101BF0000022254B20463146FEF761FBFEF7E7FC4D
:101C0000102409E0002C0ADB0A220023FEF726FB41
:101C1000039B30321A55641E50EA0102F2D1641C53
:101C2000039AC4F111031444119A012A03D001222A
:101C300008430DD10AE0084304D000204FF0110BF7
:101C4000119072E7A3EB0B056D1E0DE05B4504DD03
:101C50004FF0000205F1010504E003DA4FF0000245
:101C6000A5F10105002AECD002981199C0E90231D2
:101C7000C0E9004579E70000000014400000F03F93
:101C8000300000000000F0430000E03F2DE9FF4F6E
:101C900095B09B468946064600250FE2252877D158
:101CA00000242746F84A0121059400E0044316F871
:101CB000013F203B01FA03F01042F7D130782A2887
:101CC00011D06FF02F033078A0F13002092A16D816
:101CD000059A44F0020402EB820203EB4202104434
:101CE000761C0590EFE759F8042B0592002A03DAD9
:101CF000504244F40054059044F00204761C3078BD
:101D00002E2816D116F8010F44F004042A280DD00D
:101D10006FF02F023078A0F13003092B09D807EBC0
:101D2000870302EB4303C718761CF3E759F8047BDB
:101D3000761C30786C280FD006DC4C2817D0682829
:101D40000DD06A2814D104E0742810D07A280FD15D
:101D50000DE044F400140AE044F4801401E044F47B
:101D600040147278824202D104F58014761C761CED
:101D7000307866280BD013DC582877D009DC00288F
:101D800075D04528F6D04628F4D047281AD19DE1D1
:101D900018E0632835D0642879D0652812D195E100
:101DA000702873D008DC6728F1D069286FD06E28BE
:101DB0000DD06F2806D1B5E073282CD0752875D0CA
:101DC000782874D05A46179990476D1C75E1C4F372
:101DD0000250022809D003280DD0D9F80010042899
:101DE0000DD00D6009F1040967E1D9F80010EA1778
:101DF000C1E90052F6E7D9F800100D80F2E70D7046
:101E0000F0E719F8041B8DF8001000208DF8010090
:101E1000EA46012003E059F804AB4FF0FF306107B8
:101E20004FF0000102D40DE008F101018846B942EB
:101E30000FDA8045F8DB1AF808100029F4D108E021
:101E400008F1010188468142FADB1AF808100029DE
:101E5000F6D105985B46A0EB080721463846179A4D
:101E600000F094FA284400EB080507E04DE029E172
:101E70000DE01AF8010B5A4617999047B8F101087E
:101E8000F7D25B4621463846179A13E142E00A2210
:101E90000092C4F302524FF0000A022A08D059F807
:101EA00004CB032A4FEAEC710AD00DE029E02AE0C6
:101EB00009F1070121F00702F2E802C1914609E0A9
:101EC0000FFA8CFC4FEAEC71042A03D14FFA8CFC18
:101ED0004FEAEC71002907DA0A460021DCF1000C18
:101EE00061EB02012D2202E0220504D52B228DF8A0
:101EF0000420012203E0E20701D02022F7E7904608
:101F000059E00A2102E010220DE010214FF0000AF2
:101F100000910BE010224FF0000A44F0040408275F
:101F2000009203E008224FF0000A0092C4F302522C
:101F3000022A05D059F804CB0021032A08D009E071
:101F400009F1070121F00702F2E802C1914605E01C
:101F50001FFA8CFC042A01D10CF0FF0C4FF0000892
:101F6000220728D5702806D0009B83F0100353EA7F
:101F70000A0305D00EE040228DF80420012208E07B
:101F80005CEA010206D030228DF804208DF80500AD
:101F900002229046009B83F0080353EA0A030AD109
:101FA0005CEA010201D1620705D530228DF80420D8
:101FB0004FF001087F1E582804D034A003900EA8CB
:101FC00002900DE036A0F9E753466046009AFEF70E
:101FD00045F984460398825C0298401E0290027084
:101FE0005CEA0100F0D1029806A9081A00F1200A63
:101FF000600702D524F4803400E00127574502DD54
:10200000A7EB0A0000E0002000EB0A010090059811
:102010004144401A0590E00306D45B462146179AD6
:10202000059800F0B3F90544002706E001A85A46D8
:10203000C05D179990476D1C7F1C4745F6DBE00398
:102040000CD55B462146179A059800F09FF9054488
:1020500004E030205A46179990476D1C0099481E9D
:1020600000900029F5DC08E0029802995A460078B1
:10207000491C0291179990476D1CBAF10001AAF111
:10208000010AF1DC65E1000009280100303132333A
:1020900034353637383961626364656600000000A4
:1020A000303132333435363738394142434445468E
:1020B0000000000000F058F90544761C3078002834
:1020C0007FF4ECAD19B02846BDE8F08F620700D46C
:1020D000062709F1070222F0070CFCE80223E1467B
:1020E00003F000485FEA080C02D00FF2702C0DE0FC
:1020F0005FEA045C02D50FF2682C07E05FEAC47C5B
:1021000002D00FF2602C01E0AFF2700C4FF0FF38FC
:1021100023F00043CDF850C065280CD006DC4528DC
:1021200009D046281DD047283DD13DE0662818D06B
:1021300067287ED138E00021112F01DB112000E05B
:10214000781CCDE9000106A90EA8FFF7DDFCDDE94A
:102150000F010E9A03910021009207F1010A0491E8
:102160004DE04FF000400097CDE9011006A90EA800
:10217000FFF7CAFCDDE90F0203920E9B11990022C2
:10218000DDF80CA00093049211B9791C00EB010A50
:10219000B7EB0A0004D4C0F1FF3007F1010A049044
:1021A000AAEB0700019044E0012F00DA012700218B
:1021B000112F01DD112000E03846CDE9000106A90C
:1021C0000EA8FFF7A1FCDDE90F010E9A0391002193
:1021D00004910092BA4621070CD40399514500DAC4
:1021E0008A46BAF1010F05DD009AAAF10101515C9E
:1021F000302908D0B84202DA10F1040F06DA0121C2
:10220000CDE9011015E0AAF10101E9E7002805DC9C
:10221000049901440491AAEB000102E0411C5145DC
:1022200000DD8A460499401A401C01904FF000409E
:102230000290200704D40198504501DBCDF80480BA
:1022400000208DF84F0002980DF14F07B0F1004FBC
:1022500025D02B200E9002984FF0020800280CDAAF
:10226000404202902D200E9007E00A210298FDF7CF
:10227000DFFF3031029007F8011DB8F10001A8F12D
:102280000108F2DC02980028EFD1791E0E98087040
:10229000307800F0200040F0450007F8020D12A849
:1022A000C01B00F107081498007800B1012000EB72
:1022B0000A01019801EBE07105984144401A401E63
:1022C0000590E00306D45B462146179A059800F076
:1022D0005DF805441498007818B15A46179990474C
:1022E0006D1CE00324D55B462146179A059800F043
:1022F0004DF805441CE00498002807DBDDE90301E4
:10230000884203DD0098405C179901E0179930205E
:102310005A469047049805F10105401C0490019825
:10232000401E019004D12E205A46179990476D1CEB
:10233000BAF10001AAF1010ADDDC05E017F8010B92
:102340005A46179990476D1CB8F10001A8F1010891
:10235000F4DC5B462146179A0598ABE62D00000099
:102360002B000000200000002DE9F041044600256C
:102370001E461746880404D405E039462020B0479D
:102380006D1C641EF9D52846BDE8F0812DE9F041A9
:10239000044600251E469046C80301D5302700E0BC
:1023A0002027880404D505E041463846B0476D1C17
:1023B000641EF9D52846BDE8F08100000349CA69CA
:1023C0005206FCD5C2B28A6270470000001001407C
:1023D00086B0FFF71DF8FEF7E5FA0923022219205F
:1023E0004FF4D871FFF754F82348016841F0020117
:1023F0000160006800F0020005904FF4E13000F049
:1024000061F803201D4D0121CDE90210CDE9000145
:1024100069462846FEF7C6F96FF07E4418A0FFF71C
:102420004BFB012228461146FEF7A8FA2046FEF78C
:10243000A1F914A0FFF740FB002228460121FEF776
:102440009DFA2046FEF796F90FA0FFF735FB012213
:1024500028460221FEF792FA2046FEF78BF90BA0E0
:10246000FFF72AFB002228460221FEF787FA2046C2
:10247000FEF780F9D2E70000303802400004024045
:10248000310D0A00320D0A00330D0A00340D0A0026
:102490000FB410B5032806AC06DB05A0FFF70CFB54
:1024A00005982146FFF718FB10BC5DF814FB0000EF
:1024B000496E202573206174202564206C696E6547
:1024C000203A00000B49002210B5094C0C230C6087
:1024D000C1E90102CA6008460A61C1E90532FEF796
:1024E00091FEBDE81040044901220248FEF7FEBEFD
:1024F00000100140D80002200800022053797374B4
:10250000656D436C6F636B5F436F6E666967000058
:102510000000000000000001020304060708090093
:10252000000000010203040048250008000002200A
:1025300010000000E81A00085825000810000220CA
:1025400038050000F81A0008000000000024F4001C
:08255000000000000000000083
:04000005080001F9F5
:00000001FF
