:020000040800F2
:10000000A807022045030008532800084F280008CD
:1000100051280008DF1B0008252F00080000000001
:100020000000000000000000000000007928000827
:10003000E11B000800000000772800087B2800086A
:100040005F0300085F0300085F0300085F03000808
:100050005F0300085F0300085F0300085F030008F8
:100060005F0300085F0300085F0300085F030008E8
:100070005F0300085F0300085F0300085F030008D8
:100080005F0300085F0300085F0300085F030008C8
:100090005F0300085F0300085F0300085F030008B8
:1000A0005F0300085F0300085F0300085F030008A8
:1000B0005F0300085F0300085F0300085F03000898
:1000C0005F0300085F0300085F0300085F03000888
:1000D0005F030008E12E00085F0300085F030008CB
:1000E0005F0300085F0300085F0300085F03000868
:1000F0005F0300085F0300085F0300085F03000858
:100100005F0300085F0300085F0300085F03000847
:100110005F0300085F0300085F0300085F03000837
:100120005F0300085F0300085F0300085F03000827
:100130005F0300085F0300085F0300085F03000817
:100140005F0300085F0300085F0300085F03000807
:100150005F0300085F0300085F0300085F030008F7
:100160005F0300085F0300085F0300085F030008E7
:100170005F0300085F0300085F0300080000000041
:100180005F0300085F0300085F0300085F030008C7
:100190005F0300085F0300085F0300085F030008B7
:1001A0005F0300085F0300085F0300085F030008A7
:1001B0005F0300085F0300085F0300085F03000897
:1001C0005F0300085F030008000000005F030008F1
:1001D0005F0300085F0300085F0300085F03000877
:1001E0005F0300085F0300085F0300085F03000867
:1001F0005F0300085F03000800F002F800F092F8C7
:100200000AA090E8000C82448344AAF10107DA4571
:1002100001D100F087F8AFF2090EBAE80F0013F031
:10022000010F18BFFB1A43F00103184748300000C4
:1002300068300000103A24BF78C878C1FAD8520755
:1002400024BF30C830C144BF04680C607047000050
:100250000023002400250026103A28BF78C1FBD8CF
:10026000520728BF30C148BF0B6070476E2900F0AD
:100270005D82702900F0A983662902F060876529F4
:1002800002F05D87672902F05A87612902F05987D9
:1002900003681B0A28BF41F08001692900F0B08083
:1002A000642900F0AD80752900F0AA806F2900F064
:1002B0003683782900F07583E92900F0D182E4299A
:1002C00000F0CE82F52900F0CB82EF2900F03383D5
:1002D000F82900F074830368DB0928BF41F080012E
:1002E000632900F04182732900F04682E32900F07F
:1002F0006987F32900F06E87002070471FB502F070
:1003000019FF00F0BDFF04000020002102F0FCFEF8
:10031000401C60600020002102F0E0FEE0601FBD94
:1003200010B510BD00F07EFF1146FFF7E7FF02F0A9
:1003300025FE01F057F803B4FFF7F2FF03BC02F00B
:1003400011FE00000948804709480047FEE7FEE724
:10035000FEE7FEE7FEE7FEE7FEE7FEE7FEE7FEE775
:1003600004480549054A064B70470000052A000865
:10037000F9010008A8010220A8070220A803022012
:10038000A8030220704700000A46014900F0F8B9AE
:100390000C0002200FB4044910B503AA029800F023
:1003A000EFF910BC5DF814FB0C00022070B50C4690
:1003B0000546012A05D02878800600D5EA69002381
:1003C00002E0012305E05B1C934202D2E05C0028BE
:1003D000F9D1A869E618C01AA861286A18442862E9
:1003E000284600F011F904E0D5E9012114F8010BC9
:1003F0009047B442F8D3284600F01CF970BD0000C5
:100400002DE9F0410646002410687529314616A5ED
:1004100010D000F020F9002802DA404213A507E0CE
:1004200031688A0701D512A502E0490704D511A554
:10043000012401E000F018F900210A2206F1240746
:1004400009E0B0FBF2FCB0FBF2F302FB1C00303021
:1004500078541846491C0028F3D123462A463046D2
:10046000BDE8F04100F009B9000000002D000000D7
:100470002B000000200000002DE9F05F89460446B3
:100480004FF0000ADFF874B1FB44C0F820A020460A
:10049000E1688847002874D0252806D0D4E90121D6
:1004A0009047206A401C2062F1E700265F46204604
:1004B000E16888472028054607DB312D05D27819E9
:1004C00010F8200C08B10643F1E7B00701D526F07B
:1004D0000406C4F81CA00027C4F818A02A2D09D0CF
:1004E000284602F038FD38B304EB8708303DC8F8E1
:1004F000185019E059F8041B204604EB870291615B
:10050000E1688847012F054618D1E069002820DA04
:1005100026F020061DE0D8F8180000EB800005EB5F
:1005200040003038C8F818002046E1688847054682
:1005300002F011FD0028EED1012F0AD02E2D08D196
:100540002046E16888477F1C0546022F46F02006BA
:10055000C4DBA069002803DA404246F00106A0612E
:10056000F00701D026F010066C2D0BD0682D09D0B5
:100570004C2D39D06A2D35D0742D35D07A2D33D00D
:1005800016E038E0E1682F4620468847B842054625
:1005900009D16C2F26D04FF48060E16806432046D5
:1005A0008847054604E06C2F1AD04FF4807006434C
:1005B0000DB3A5F14100192802D8203546F4006694
:1005C0004A462946204626604E46FFF74FFE80B138
:1005D00001280BD0F61D26F0070000F1080956E7A8
:1005E0004020E4E78020D8E70020D6E706F10409A0
:1005F0004DE7284652E7206ABDE8F09FEA2C00004C
:10060000704770477047704770B504468569006849
:10061000C10601D5302600E02026C00707D070BDF6
:10062000D4E9012130469047206A401C20626D1EAB
:10063000F6D570BD70B5044685690078C00707D14E
:1006400070BDD4E9012120209047206A401C20621F
:100650006D1EF6D570BD09684A0501D540B27047D8
:10066000C905FCD500B2704709684A0501D5C0B27A
:100670007047C905FCD580B270472DE9F0470D469B
:1006800099469246044600F124080168880604D57C
:10069000E06921F01001216000E00120A84201DDA5
:1006A000471B00E00027A1697A1902EB0900081A2C
:1006B000A0612078C00602D42046FFF7A5FF0026DF
:1006C00008E0D4E901211AF806009047206A401C8E
:1006D000761C20624E45F4DB2078C0060AD5204601
:1006E000FFF792FF06E0D4E9012130209047206A0D
:1006F000401C2062381EA7F10107F4DC07E0D4E9B2
:10070000012118F805009047206A401C2062281E2D
:10071000A5F10105F3DC2046FFF78CFF20780006E9
:1007200002D50220BDE8F0870120FBE711680268CE
:10073000006A530501D508700AE0D30501D5088089
:1007400006E0130603D5C217C1E9000200E0086005
:100750000120704710B5436913B1AFF3008001E089
:10076000FFF724FE012010BD127800F124010A7069
:1007700000224A700122EDE711684FF0FF32E9E7ED
:10078000074B70B50D467B4400F0FFFC044628463D
:1007900000F024FD10B14FF0FF3070BD204670BD59
:1007A000DF2700002DE9FF5F15468A460446DFF883
:1007B000AC80F8440027D8E900103E46CDE900108F
:1007C00010E03AF816106A4602A800F00BFD411C32
:1007D00007D02178890603D5E269391891420DD8EE
:1007E0000744761C2078800602D5E069B84205DD12
:1007F000AE42E6DB3AF816000028E2D1A069C01B41
:10080000A0612046FFF700FFD8E90010CDE90010F5
:10081000002017E03AF818106A4602A800F0E2FC3F
:10082000B0F1FF3F81460BD000250DF1080B05E02C
:10083000D4E901211BF8050090476D1C4D45F7D305
:1008400008F10100B0428046E4DB206A38442062AF
:100850002046FFF7EFFEBDE8FF9F0000D229000011
:100860002DE9F0418046D21D22F007020025D2E991
:100870000002F52915A614D0011E72F1000106DA56
:100880000023D0EB030063EB020211A608E0D8F8C6
:1008900000108B0701D50FA602E0490701D50EA66F
:1008A00001251146002408F1240704E000F098F81F
:1008B00030323A55641C50EA0102F7D12B463246D9
:1008C00021464046BDE8F041FFF7D7BE00000000DA
:1008D0002D0000002B0000002000000030B400219B
:1008E00000F1240408E002F00705D208303542EA9E
:1008F0004372DB086554491C52EA0305F3D10468CE
:10090000002310A2250707D5A40600D421B1C4698D
:1009100001230DA2641EC46130BCFFF7AEBE10B54A
:10092000044621461068FFF79FFE02462046BDE8B8
:1009300010400023D2E7D21D22F00701D1E90023A5
:10094000CCE700000000000030000000F0B40D46CD
:100950000188090502D5214C7C4402E01F4C7C44EF
:100960000E34002100F1240608E002F00F071209FE
:10097000E75D42EA03721B097754491C52EA0307F8
:10098000F3D102780023120704D5702D06D009B1E7
:10099000022311342246F0BCFFF76FBE012310344E
:1009A000F8E770B504460D4621461068FFF75CFE77
:1009B000024629462046BDE870400023C6E7D21D06
:1009C00022F00703D3E90023C0E70368126843F06D
:1009D000200303600823C3610023B7E73428000025
:1009E00030B5B0F10A024FEA900E71F100034EEA01
:1009F000817EB0EB0E0061EB91014FEA101E4EEAD2
:100A0000017E10EB0E0041EB11114FEA102E4EEA61
:100A1000016E10EB0E0041EB11214FEA104E4EEA31
:100A2000014E10EB0E0041EB1141401841F1000165
:100A30004FEAD00040EA41704FEAD10110EB800547
:100A40004FEA810444EA907444EB01046D1944EBCD
:100A50000404521BA3414FF0000348BF0A3200D5E3
:100A600030BD401C41F1000130BD70472DE9FF4F02
:100A70000C461E464FF0FF378BB0D2E90001DDF87F
:100A800060800A908A46C1F30A5505B93D460021A7
:100A900008464FF00000BAF1000F00F4400005DAFC
:100AA00000EB80004FF4400101EA50004FEA9059FA
:100AB000B9F1010F00DDB9460A9850EA4A000ED09C
:100AC00044F61050A5F2FF3545432F14B8F1000F3E
:100AD0001ED07542291E1EDDC9F100021CE0B8F1CE
:100AE000010F4FF0000001D0302103E0F24305E098
:100AF0002154401CB042FBDB30460022002121542F
:100B00000B99C1F80880C1E900200FB0BDE8F08F53
:100B1000BD1B6D1CDEE74A4600DA694206A800F0FC
:100B2000F3FB06AB93E8070003AB83E807005046EE
:100B30000A9900F099FC8DE80700A0F500501F38D5
:100B400000900398002D09DD42F21F014A46084437
:100B500003A90390684600F0F8FE08E0A0F50050F5
:100B60004A461F3803A90390684600F002FF8DE84B
:100B700007000004000C03D04FF0FF30410800E0F4
:100B80001046B8F1000F03D00022009215461EE077
:100B9000751E05D4FFF724FF303262556D1EF9D55E
:100BA000B3460122084302D000227F1C04E02078D3
:100BB000302801D100227F1E002A099786D01DE02F
:100BC000112D07DAFFF70CFF303262556D1C50EA29
:100BD0000102F5D1084302D00098C8B10EE000210F
:100BE000681E05E0235C625C63542254401E491C6D
:100BF0008142F7DBAB46A81B401E0990002004F899
:100C00000B000B98099AC0F80880C0E9002B7CE71C
:100C100011264FF0000859E72DE9F04F88460446A9
:100C2000D21D22F0070191B0D1E90001CDE90A01FE
:100C300002F079F902460B98C00F01D02D2007E091
:100C40002068810701D52B2002E0202101EAC000A5
:100C5000032A099001D0072A05DB034641462046B6
:100C600000F012FB0BE12078800601D5E06900E07E
:100C70000620B8F1650F814606D0B8F1660F18D08E
:100C8000B8F1670F70D131E00020B9F1110F009079
:100C900001DB112301E009F101030AAA01A90CA853
:100CA000FFF7E4FEDDE90C70002609F1010583463B
:100CB00047E001204B4600904FF000470AAA01A9E7
:100CC0000CA8FFF7D3FEDDE90DB00C995D460026B8
:100CD00010B909F101000D18B9EB050003D4C0F1FA
:100CE000FF3609F10105A5EB09002BE0B9F1010F71
:100CF00001DA4FF001090020B9F1110F00904846C8
:100D000001DD112300E003460AAA01A90CA8FFF7A0
:100D1000ADFEDDE90C704D460026834620780007C5
:100D20000AD4AB4500DA5D4601A8012D04DD411966
:100D300011F8011C302907D04F4502DA17F1040FD2
:100D400004DA012082460FE06D1EEEE7002F02DC80
:100D5000ED1B3E4403E0781CA84200DD7D1CB81B5F
:100D600000F1010A4FF000472078000703D4AA459C
:100D700001DB4FF0FF3A0021B7F1004F0DF14308BE
:100D80008DF8431024D002202B23002F01DA7F425C
:100D90002D230A21021EA0F1010000DC5FB197FBA8
:100DA000F1FC97FBF1F201FB1C7C17460CF1300CB7
:100DB00008F801CDEEE7A8F10100037021880905CC
:100DC00001D5452100E06521A0F1010800F8011CD2
:100DD00009980FA9A1EB0807FF1D00B101204119D7
:100DE00001EBEA70A1693844081A401EA06120781E
:100DF000C00602D42046FFF707FC099828B1D4E9C1
:100E000001219047206A401C20622078C00622D52C
:100E10002046FFF7F9FB1EE0002E04DBB34502DDA0
:100E200001A8805D00E03020D4E901219047206ACC
:100E3000401C2062761CAAF101005FEA000A0AD178
:100E400000F01EFAC0680168405CD4E901219047B7
:100E5000206A401C2062281EA5F10105DCDC07E0A9
:100E6000D4E9012118F8010B9047206A401C206248
:100E7000381EA7F10107F3DC2046FFF7DBFB032058
:100E800011B043E62DE9F04F04460D46D21D22F085
:100E9000070089B0D0E900974846394602F043F888
:100EA0000246F80F01D02D2307E02068810701D505
:100EB0002B2302E0202101EAC0038DF820300BB182
:100EC000012000E00020032A824601D0072A04DB2B
:100ED0002946204600F0D8F93FE12078800601D469
:100EE0000D2500E0E569C7F30A560D2D49DA00210A
:100EF0004FEA175B08464FF00000002F00F4400057
:100F000007DA00EB80004FF4400100EBD07001EAFB
:100F100060008115012901DD4FF0FF3100224FEA09
:100F2000850CBCF1180F06D31346ACF118004FF036
:100F30008052C24003E04FF4801323FA0CF30CF10B
:100F40000C0CBCF1200F04D3ACF1200C09FA0CF00E
:100F500001E007FA0CF000294FF0004801DD18B954
:100F60000FE00ED140450CD319EB02095F4121B9C6
:100F7000404502D19F4329EA0209BBEB175F00D02D
:100F8000761C2088000502D57B48784402E07A4828
:100F90007844193808AA302302F80A30037C0AF191
:100FA0000101002E0AF1020A53546A4602DC4FF096
:100FB000300101E04FF031014FF001088DF80010D1
:100FC00002D0A6F2FF3603E059EA470100D06B4E8B
:100FD000002D02DC2178090704D54FF002082E21EC
:100FE0008DF80110C44600210BE0C7F303433F0115
:100FF000C35C491C6D1E02F80830052908F1010880
:1010000001DA002DF1DC00210CE000EB1973491C22
:101010001B786D1E082902F808304FEA091908F1FB
:10102000010801DA002DF0DC21688B0602D516E0FC
:10103000A8F10108E04505DD02EB080313F8013CC7
:10104000302BF5D0B8F1000F09DD02EB080313F8DF
:10105000013C2E2B03D1090701D4A8F10108002D72
:1010600005DD3E2102F808106D1E08F10108407CE4
:10107000002E02F8080008F1010804DA2D2076425B
:1010800002F8080002E02B2002F808000A214FF4C1
:101090007A70864208F101080BDB96FBF0F33033DF
:1010A00002F8083096FBF0F308F1010800FB136624
:1010B00001E0642E0CDB642096FBF0F3303302F881
:1010C000083096FBF0F308F1010800FB136601E01D
:1010D0000A2E06DB96FBF1F0303002F8080008F12A
:1010E000010896FBF1F001FB1060303002F80800B7
:1010F000A16908F1010808EB050202EB0A00081AD1
:10110000A0612078C00602D42046FFF77DFA216A4C
:1011100008AE01EB0A00206204E0D4E9012116F8D0
:10112000010B9047BAF1010AF7D22078C00602D528
:101130002046FFF769FA6E4609E016F8010B3E28D3
:101140000FD0D4E901219047206A401C2062B8F1F9
:101150000108F2D22046FFF76DFA09B00320BDE87E
:10116000F08F206A2844206203E0D4E90121302076
:1011700090476D1EEBD3F8E73D22000002FCFFFF15
:1011800001694A1C02610878704700B58FB0CDE94B
:1011900001310021059105497944CDE9031011463B
:1011A0006846FFF769F90FB000BD0000E5FFFFFFDB
:1011B00010B5436913B1AFF3008001E0FFF7F2FA15
:1011C000012010BD128800F1240182840022C28413
:1011D0000122EDE711684FF0FF32E9E7007B00F0F4
:1011E0008000704770B516460C46054600F040F882
:1011F000036893F80101012806D0FF2C0FD8185D71
:1012000068B101202C7070BDD3F807013246214629
:1012100003F2071303442846BDE8704018474FF017
:10122000FF3070BD754600F0E7F8AE460500694630
:10123000534620F00700854618B020B5FFF790F818
:10124000BDE820404FF000064FF000074FF00008C7
:101250004FF0000B21F00701AC46ACE8C009ACE848
:10126000C009ACE8C009ACE8C0098D467047000071
:1012700010B500F005F8001D10BD00BF8D1E000068
:1012800000487047680102202DE9F0411F460446DE
:1012900003260168072A01F4006004DB08B116A5E3
:1012A00005E016A503E008B115A500E015A521F09D
:1012B00010002060A069C01EA0610FB1401EA06197
:1012C0002046FFF7A1F94FB1D4E9012138469047F4
:1012D000206A401C2062C01C206206E0206AFAE7F7
:1012E000D4E9012115F8010B9047761EF8D220466B
:1012F000FFF7A0F9BDE8F0814E414E006E616E002F
:10130000494E4600696E66002DE9F0478146164653
:101310008AB0334878440DC88DE80D0030487844D1
:10132000801C03AC0DC884E80D0041F69B300844D6
:10133000372190FBF1F290FBF1F5A5F1800501FB5F
:1013400012041B3C02D56442012000E00020DFF8BB
:1013500090A080460027FA44AAF1BE0A0DE0E007FB
:1013600009D03246684607EB47010AEB810100F0DD
:1013700000FB8DE8070064107F1C002CEFD1184F94
:101380007F44AC3F18E0E80714D007EB04100DF1E0
:10139000180A90E80E008AE80E00C068F04201D1F9
:1013A00098190890324606A903A800F0E2FA03ABA8
:1013B00083E807006D10641C002DE4D132466946B5
:1013C000B8F1000F03A802D000F0BFFA01E000F06E
:1013D000D0FAC9E90001C9F808200AB0BDE8F087D1
:1013E000441F000010B50446AFF300802046BDE85E
:1013F0001040FEF7A0BF00000048704748010220DF
:101400004FF0013C50F8042B51F8043B9A4215D19F
:10141000A2EB0C03934313EACC130BD150F8042B2B
:1014200051F8043B9A4209D1A2EB0C03934313EA0F
:10143000CC13E7D04FF00000704700BFD01A01BABC
:10144000B1FA81F101F0180122FA01F0CB40C1F1AB
:101450002001DBB2C0B2C01A2CFA01F3D11A9143B9
:1014600011EAC311E6D170475FEA400C08BF91F062
:10147000000F4FEA8C234FEAC12243EA51514FEA51
:101480001C5018BF00F5F0404FEA300018BF41F083
:1014900000415FEA6C5C00F02980BCF1FF3F08BFAF
:1014A00040F080407047130C06BF12044FF0100C40
:1014B0004FF0000C130E04BF12020CF1080C130FB6
:1014C00004BF12010CF1040C930F04BF92000CF145
:1014D000020CD30F04BF52000CF1010C11464FF067
:1014E0000002A0F11F00A0EB0C00704711F0004FAC
:1014F00008BF704731F000413FF4D5AF0B0C06BF79
:1015000009044FF0100C4FF0000C0B0E04BF090241
:101510000CF1080C0B0F04BF09010CF1040C8B0F2C
:1015200004BF89000CF1020CCB0F04BF49000CF181
:10153000010CCCF12003A0EB0C0022FA03F302FA19
:101540000CF241EA030100F10100704720F07F4CEA
:1015500080EA030023F07F47ACEB070303F57C53DD
:1015600000F0004003F1FF032DE980494FEA154BDD
:1015700009B44FEA144325EA0B4E24EA03480FF25C
:10158000042606EB132749083E785FEA320203FB84
:101590000667C7F5000707FB06F64FEA54374FEA20
:1015A000D64606F1020607FB066CCCF1005C4FEA5A
:1015B0001C472CEA074C07FB06F40CFB06F504EB72
:1015C00015464FEA961634BF00204FF000404FEA10
:1015D000D13706FB07FC4FEA1C4C0CFB0BF7D21B68
:1015E00003FB0CF761EB07010CFB0EF7B0EB0740B8
:1015F00072EB17420CFB08F734BFA2EB0742B2EBC9
:10160000074261EB17414FEA0C444FEA910706FB92
:1016100007FC4FEA1C4C0CFB0BF7B0EBC74072EB1E
:10162000573203FB0CF734BFA2EBC742B2EBC74201
:1016300061EB57310CFB0EF7B0EBC70072EB577242
:101640000CFB08F734BFA2EBC702B2EBC70261EB99
:101650005771039F4FEA816141EA921104EBCC0478
:101660004FEAD1374FEA826206FB07FC42EA90124A
:101670004FEA80604FEA1C4C0CFB0BF7D21B03FBBC
:101680000CF761EB07010CFB0EF7B0EB074072EBB8
:1016900017420CFB08F734BFA2EB0742B2EB07423C
:1016A00061EB17414FEA8C554FEA910704EB9C24FC
:1016B00006FB07FC4FEA1C4C0CFB0BF7B0EBC740DA
:1016C00072EB573203FB0CF734BFA2EBC742B2EB0D
:1016D000C74261EB57310CFB0EF7B0EBC70072EB62
:1016E00057720CFB08F734BFA2EBC702B2EBC7027C
:1016F00061EB577115EB4C254FEA816141EA92117C
:101700004FEA82624FEAD13742EA901206FB07FCA9
:1017100044F100044FEA80604FEA1C4C0CFB0BF7CD
:10172000D21B03FB0CF761EB07010CFB0EF7B0EBD0
:10173000074072EB17420CFB08F734BFA2EB0742DD
:10174000B2EB074261EB174115EB1C154FEA8131F3
:1017500041EA92414FEA823242EA90424FEA8030B7
:101760004FEA0C7644F1000448EA03434EEA0B4882
:101770004FF0000EB2EB080C71EB030724BF62467A
:1017800039464EEB0E0E4FF0000B00185241494106
:101790004BEB0B0BB2EB080C71EB03077BF1000B6F
:1017A00024BF624639464EEB0E0E4FF0000B001878
:1017B000524149414BEB0B0BB2EB080C71EB0307A9
:1017C0007BF1000B24BF624639464EEB0E0E51EA08
:1017D000020718BF46F0010616EB0E7655F100021F
:1017E00054F1000103D5BDE88901BDE80088BDE8DA
:1017F0008901BDE80048B619524141EB0101A3F14E
:101800000103704780807F7E7D7C7B7A7978777654
:1018100076757473727171706F6E6E6D6C6C6B6ACD
:101820006A6968686766666564646363626161606B
:10183000605F5F5E5E5D5D5C5C5B5B5A5A595958E8
:101840005857575656555555545453535252525152
:10185000515050504F4F4F4E4E4D4D4D4C4C4C4BA8
:101860004B4B4A4A4A4949494848484747474746EF
:10187000464645454544444444434343434242422B
:1018800042414141002B26D4770021D01CB54FEABC
:10189000370703B44FF010004FF010014FF0000075
:1018A0000FBCBDE810400BF1010BBBF1010F08BFED
:1018B0005FEA170722BF12F1010211F101014FF097
:1018C000004143F1000300F0004043EA000070478C
:1018D000F9D35708DAE746EA064613F1400F4FEA14
:1018E00016461FDD13F1200FDFBF16430A46002105
:1018F00020335B42C8D0C3F1200746EA064602FA0D
:1019000007F74FEA164646EA0706C3F1200722FA10
:1019100003F201FA07F721FA03F14FF0000342EA5C
:101920000702B1E746EA020646EA06464FEA1646CD
:1019300046EA0106BCBF46EA0646360C4FF00003F5
:101940004FF000024FF000019EE72DE9C04893469A
:1019500030B491E8380007C831EA400C48BF34EA97
:10196000430C03D5FFF7F2FDFFF78CFFF0BCBDE899
:1019700000882DE9C048934630B491E8380007C884
:1019800010F0804F08BF13F0804F03D100F005F82E
:10199000FFF778FFF0BCBDE8008820F07F4780EAC1
:1019A000030023F07F4C07EB0C03A3F57C5300F0FE
:1019B0000040A3F1FE0392F0000F00F0B38095F019
:1019C000000F00F077802DE901494FEA11404FEAFE
:1019D000144621EA004800FB06FC24EA064708FBFF
:1019E00006F607FB08F800FB07F718EB06484CEB78
:1019F000164C4FEA124B18EB07484FEA15464CEBD2
:101A0000174022EA0B4E0BFB06FC25EA06470EFBAD
:101A100006F607FB0EFE0BFB07F71EEB064E4CEB24
:101A2000164C4FF000061EEB074E4CEB174B18EB15
:101A30000B0840F1000018EB0E0B58EB000840F1CA
:101A400000008F1A4FF000013CBFC943661B14BF52
:101A5000B5EB040C00213CBFC943F61B4FEA174409
:101A60004EEA8E0E27EA04454FEA1C4704FB076244
:101A70002CEA074C05FB07F70CFB05F604FB0CFCF6
:101A800016EB074642EB174216EB0C4642EB1C42A4
:101A90001BEB060658EB0202414146EA9E0601D5C1
:101AA000BDE80189B619524141EB0101A3F10103DF
:101AB000BDE801894FEA14454FEA114724EA05467B
:101AC00021EA074C05FB07F406FB07F70CFB06F1C0
:101AD00005FB0CFC11EB074144EB17444FEA12479E
:101AE00011EB0C4144EB1C4422EA074C05FB07F2C6
:101AF00006FB07F70CFB06F605FB0CFC16EB07468E
:101B000042EB174216EB0C4642EB1C456A1854F1A7
:101B1000000148BF7047B619524141EB0101A3F1E2
:101B20000103704795F0000F37D04FEA11424FEA9A
:101B3000144721EA024624EA074C02FB07F106FBA0
:101B400007F70CFB06F402FB0CFC14EB074441EB1B
:101B500017414FEA154714EB0C4441EB1C4125EAB1
:101B6000074C02FB07F506FB07F70CFB06F602FB2A
:101B70000CFC16EB074645EB174516EB0C4645EB00
:101B80001C42121951F1000148BF7047B619524169
:101B900041EB0101A3F1010370474FEA14454FEAFD
:101BA000114724EA054621EA074C05FB07F106FB2D
:101BB00007F70CFB06F24FF0000605FB0CFC12EBDE
:101BC000074241EB174112EB0C4251EB1C4148BF5D
:101BD0007047921841EB0101A3F101037047FEE742
:101BE000704701B50098411E0091FBD208BD90F8E6
:101BF0003510022903D0802141650120704705215D
:101C000080F835100068016821F0010101600020B2
:101C1000704700002DE9F84FDFF89CE100224FF0FB
:101C200001084FF0030B4FF00F0A00BF0B6808FAD2
:101C300002F42340A34271D14D68022D01D0122D30
:101C40000FD1D5080E69570700EB8505A9462D6A07
:101C5000FF0E0AFA07FCBE4025EA0C052E43C9F820
:101C600020600F79550006680BFA05FC07F00307A2
:101C700026EA0C06AF40374307604E68012E05D0B8
:101C8000022E03D0112E01D0122E0ED18668CF68FD
:101C900026EA0C06AF403743876046680F79A643B3
:101CA000C7F30017974037434760C4688E6824EA3B
:101CB0000C04AE402643C6604C68E40075D53F4C2A
:101CC000256845F480452560246822F003069507C1
:101CD00004F4804400943A4C2D0F2644D6F808486A
:101CE000DFF8E0C00AFA05F7604524EA070401D1ED
:101CF00000272EE0344FB84201D1012729E0334FAD
:101D0000B84201D1022724E0314FB84201D1032764
:101D10001FE0304FB84202D104271AE045E02E4FB1
:101D2000B84201D1052714E02C4FB84201D1062753
:101D30000FE02B4FB84201D107270AE0294FB842E4
:101D400001D1082705E0284FB84201D1092700E05A
:101D50000A27AF4027437546C6F808784E68DEF874
:101D60000040F60324EA030400D51C43124E2C6005
:101D7000361D4D683468AD0324EA030400D51C43C6
:101D80000D4F346008374D683C68ED0224EA0304C7
:101D900000D51C43084D3C600C354E682C68B602DB
:101DA00024EA030400D51C432C60521C102AFFF4C3
:101DB0003DAFBDE8F88F0000003C014044380240D0
:101DC00000300140000002400004024000080240D0
:101DD000000C0240001002400014024000180240B3
:101DE000001C024000200240002402400AB1816130
:101DF00070470904FBE700000148006870470000D5
:101E00000000022002480168491C01607047000080
:101E100000000220074810B5016841F4007101601C
:101E2000052000F049F80F2000F006F800F018F83F
:101E3000002010BD003C0240084910B504464FF494
:101E40007A700968B1FBF0F000F03EFB00222146F9
:101E5000501E00F011F8002010BD00000400022008
:101E60007047410900F01F028900012001F1E021C3
:101E70009040C1F8000170470E4BF0B41B680D464E
:101E8000C3F30223C3F10706042E00D90426191D4B
:101E9000072901D2002300E0DB1E012404FA06F129
:101EA0009C40491E2940641E994014402143F0BCC7
:101EB00000F0D0BC0CED00E0064900F0070210B5C0
:101EC0004FF6FF040868044B204040EA0220184304
:101ED000086010BD0CED00E00000FA051848F8B5E8
:101EE000016841F0805101600068164C00F080509C
:101EF0000090206840F480302060FFF77DFF4FF4B1
:101F00007A76054605E000BFFFF776FF401BB0423A
:101F10000FD86068C003F7D5206840F40030206017
:101F2000FFF76AFF054606E0FFF766FF401BB04279
:101F300001D90320F8BD60688003F5D50020F8BD05
:101F400040380240007000402DE9F047DFF84C8136
:101F500005460E46D8F8000000F00F00B0420CD243
:101F6000D8F8001021F00F013143C8F80010D8F85C
:101F7000000000F00F00B04265D12878484C80077F
:101F800005D5A968206820F0F00008432060287873
:101F9000C00747D0424968680839012816D0096847
:101FA000022816D0890700294DDA216821F00301A3
:101FB00001432160FFF720FF6968074641F288303E
:101FC00001290FD00229814619D027E00968890329
:101FD000E9E78901E7E700BFFFF70EFFC11B4945AD
:101FE00001D918E081462068C0F381000128F3D1AF
:101FF00018E000BFFFF700FFC11B49450BD8206860
:10200000C0F381000228F5D10CE000BFFFF7F4FE19
:10201000C11B494502D90320BDE8F087206810F0B4
:102020000C0FF3D1D8F80010404601F00F01B14277
:102030000BD9016821F00F0131430160006800F005
:102040000F00B04201D00120E6E72878400705D50F
:10205000E968206820F4E0500843206028780007F1
:1020600006D52869216821F4604141EAC00020605A
:1020700000F04CF82168F02292FAA2F201F0F0018F
:10208000B2FA82F2D140074A515CC8400649086062
:102090000F20FFF7D1FE0020BEE70000003C024009
:1020A000083802405E3100080400022008484FF45E
:1020B000E052016892FAA2F2064801F4E051B2FA45
:1020C00082F2D140044A0068515CC8407047000069
:1020D00008380240040002206E31000808484FF41E
:1020E0006042016892FAA2F2064801F46041B2FA35
:1020F00082F2D140044A0068515CC8407047000039
:1021000008380240040002206E3100081D4930B535
:102110001D48096811F00C011AD01C4B042916D077
:10212000082915D1174947F6C072091F0C680D68B8
:1021300004F03F046D020CD50D68B3FBF4F092FA85
:10214000A2F31540B3FA83F2D54068430BE018467A
:1021500030BD0B68B0FBF4F092FAA2F41340B4FA6D
:1021600084F2D340584309684FF4403292FAA2F205
:1021700001F44031B2FA82F2D140491C4900B0FB6F
:10218000F1F030BD083802400024F40040787D01B1
:102190002DE9F84FCA4F05460078A7F10409A9F1C7
:1021A0000404C0074AD03868C0F38100012808D071
:1021B0003868C0F3810002280AD1D9F80000400233
:1021C00006D52068800339D56868002875D035E0C9
:1021D0006868B0F5803F0BD010B1B0F5A02F11D0DA
:1021E000206820F480302060206820F4802002E005
:1021F000206840F480302060686890B1FFF7FCFDF3
:1022000006460AE0206840F480202060F0E700BF26
:10221000FFF7F2FD801B642874D820688003F7D58F
:102220000CE0FFF7E9FD064605E000BFFFF7E4FD1F
:10223000801B6428F0D820688003F7D428788007B2
:1022400044D538684FF0F80810F00C0F08D0386803
:10225000C0F3810002280AD1D9F80000400206D458
:102260002068800716D5E868012826D112E0E868C2
:10227000002820681AD040F001002060FFF7BCFD64
:10228000064604E0FFF7B8FD801B0228C4D820688A
:102290008007F7D52869226898FAA8F1B1FA81F188
:1022A000884022F0F801014321600FE020F0010096
:1022B0002060FFF7A1FD064605E0FEE0FFF79CFD6C
:1022C000801B02281ED820688007F7D428780007D2
:1022D00029D57B4869696C3000298046016812D095
:1022E00041F001010160FFF787FD064605E000BFF0
:1022F000FFF782FD801B022804D8D8F80000800771
:10230000F6D510E07EE021F001010160FFF774FDD9
:10231000064604E0FFF770FD801B022872D8D8F84B
:1023200000008007F6D42878400756D56448383036
:10233000016841F0805101600068DFF8888100F099
:1023400080500090D8F8001041F48071C8F8001057
:10235000FFF752FD064604E0FFF74EFD801B6428A0
:1023600050D8D8F80000C005F6D5554EA868683694
:1023700001280AD008B1052813D0306820F00100E8
:102380003060306820F0040002E0306840F0010066
:102390003060A86841F2883A90B1FFF72DFD804681
:1023A0000AE0306840F004003060EEE7FFF724FDFB
:1023B000A0EB0801514578D830688007F6D50CE0CD
:1023C000FFF71AFD804605E0FFF716FDA0EB0801B8
:1023D00051456AD830688007F6D4A869E8B33968EF
:1023E000C1F38101022968D00228206820F08070A2
:1023F000206003D0FFF700FD054659E0FFF7FCFC25
:10240000064606E051E000BFFFF7F6FC801B0228FD
:102410004BD820688001F7D4D5E9091247F6C0707F
:102420004FF0FF374FF4403690FAA0F396FAA6F635
:1024300007EB5202B3FA83F3D5E9070CB6FA86F834
:1024400099404FF0706702FA08F297FAA7F7114324
:102450004FF0E04640EA0C0000E02CE0D5E90B32FA
:1024600096FAA6F5B7FA87F7B5FA85F5BB400843A3
:10247000AA4018431043C9F80000206840F080705B
:102480002060FFF7B9FC054605E000BFFFF7B4FC8C
:10249000401B022809D820688001F7D50BE000BF57
:1024A000FFF7AAFC401B022802D90320BDE8F88FE1
:1024B00020688001F4D40020F8E70120F6E700004E
:1024C0000838024000700040401EB0F1807F10B517
:1024D00001D3012010BD4FF0E02460610F2160178F
:1024E00000F0B8F90020A0610721216110BD7047FC
:1024F00090F8691090F86A000843704770B5016859
:102500000446C8690A688B6810F00F0F5CD040F26F
:1025100001152B426BD0C50707D0D50505D5012580
:102520000D62E16E41F00101E166810708D5D9072E
:1025300006D0256802212962E16E41F00401E166BE
:10254000410708D5D90706D0256804212962E16E24
:1025500041F00201E16601070CD502F0200103F011
:102560000103194306D0236808211962E16E41F086
:102570000801E166E16E002932D0800604D590069C
:1025800002D5204600F012FBE06E000703D420685D
:102590008068400625D5204600F0FAFA2068816858
:1025A00049061AD5816821F040018160606EA0B1B2
:1025B0002F490165606EFFF71AFB002810D0606E8E
:1025C000016DBDE870400847830610D593060ED50F
:1025D0002046BDE8704000F0E9BA2046FFF787FFCB
:1025E00070BD2046FFF783FF0020E06670BD030644
:1025F0002FD513062DD594F869002128F6D1B4F80B
:10260000520020B1A068B0F5805F0AD00BE00868E6
:1026100020F0800008602068016841F040010160FE
:1026200070BD206960B1E06C411CE16421680078F4
:10263000C1F82800B4F85200401EA4F8520070BD42
:10264000E06C0088C0F308008862E06C801CE064E5
:10265000F0E74006F3D55006F1D50B68202220465E
:1026600023F040030B6084F8692000F0EFF870BDA0
:102670007D2B000810B5040003D094F8690010B158
:1026800007E0012010BD002084F86800204600F01B
:1026900027F8242084F869002068016821F00101EE
:1026A0000160204600F0BEFA0128EBD0606A10B14C
:1026B000204600F0D1F92068416821F49041416042
:1026C0002068816821F02A0181602068016841F05A
:1026D000010101602046BDE8104000F021BA000071
:1026E00010B5006886B01A4988422ED11948016891
:1026F00041F001010160006800F0010005901548FB
:102700001430016841F01001016000680122124C90
:10271000072300F010000590022004930102CDE988
:102720000010CDE9022069462046FFF773FA201514
:10273000694600902046FFF76DFA2520FFF791FBD0
:10274000032225201146FFF797FB06B010BD0000BD
:1027500000100140303802400000024010B590F8EF
:102760006A30202B44D1C9B1C2B190F86830012B36
:102770003ED08368012441654FF0FF0180F8684036
:10278000B3F5805FA0F85820A0F85A2008D04FF089
:102790007F0253B1B3F1805F0CD011E0012010BD76
:1027A000026922B940F2FF1101E0036933B9A0F8D0
:1027B0005C1005E0016909B13F21F8E7A0F85C2051
:1027C00000212222C16680F86A2080F86810016822
:1027D0000A6842F480720A6001688A6842F0010265
:1027E0008A600068016841F020010160002010BD8E
:1027F000022010BD30B50068114988420CD1114843
:1028000041880A0408D402464FF000034C041278B1
:1028100006D50A2A01D0438030BD41F400410DE0C5
:102820000D2A09D0084DC1F30D04491C89B2C729EE
:102830002A554180EFD830BD41F48041418030BD00
:102840000010014008000220100002207047FEE73F
:10285000FEE77047090700284FEA116106DA00F029
:102860000F0000F1E02080F8141D704700F1E02017
:1028700080F80014704770477047FFF7C3BA000034
:10288000F0B5BFF34F8FBFF36F8F1C4A00201A497A
:1028900010600A6842F400320A60BFF34F8FBFF342
:1028A0006F8F154A70321060BFF34F8F101F134D9A
:1028B00043F6FF7410350068C0F34E32C0F3C9030D
:1028C00004EA4216184600BF46EA80772F60401E91
:1028D000FAD2521EF4D2BFF34F8F086840F4803012
:1028E0000860BFF34F8FBFF36F8F04484C3001680F
:1028F00041F004010160F0BD14ED00E050EF00E094
:10290000F0B5294C93B0256845F0805525602468C2
:1029100004F080541294254C256845F44045256008
:1029200024680DF1200C022504F440441294012483
:102930008CE80F0026046846A705CDE90046CDE9DE
:102940000657FFF725FC044605E020493022032006
:1029500017A300F08DFB002CF7D1FFF7BFFA044658
:1029600005E01A493722032019A300F081FB002C4F
:10297000F7D10FAC00214FF4A0524FF4805384E8FC
:102980000E000F20CDE90D0507210DA8FFF7DCFA99
:10299000044605E00D494422032014A300F068FB1F
:1029A000002CF7D113B0F0BD403802400070004059
:1029B00053797374656D20636C6F636B20736574FA
:1029C000206572726F72210A000000004631000813
:1029D000456E61626C65204F76657220447269763F
:1029E00065206572726F72210A0000005243432015
:1029F000636C6F636B20736574206572726F7221F4
:102A00000A000000104A30B51048146800210F4B2E
:102A100044F470041460083305680D4A0D4C45F009
:102A20000105056019600368051D1340074A03602E
:102A30000C322C600568E305034C25F48025056005
:102A4000803C1160236030BD88ED00E0003802401A
:102A5000FFFFF6FE1030002490F82410C90706D0BE
:102A60000168836A4A6822F400321A434A6090F887
:102A70002410890706D50168C36A4A6822F48032A7
:102A80001A434A6090F82410490706D50168036B81
:102A90004A6822F480221A434A6090F824100907F9
:102AA00006D50168436B4A6822F400421A434A6023
:102AB00090F82410C90606D50168836B8A6822F451
:102AC00080521A438A6090F82410890606D501685E
:102AD000C36B8A6822F400521A438A6090F824106B
:102AE000490611D50168036C4A6822F480121A4322
:102AF0004A60016CB1F5801F06D10168436C4A68D9
:102B000022F4C0021A434A6090F82410090606D540
:102B10000168826C486820F40020104348607047C8
:102B2000F8B500260446C666FFF766F90546206834
:102B30006FF07E470068000708D500222B464FF44F
:102B400000112046009700F099F960B920680068EC
:102B500040070AD500222B464FF4800120460097FB
:102B600000F08CF908B10320F8BD202084F869003A
:102B700084F8686084F86A000020F8BD10B5806BA6
:102B80000021A0F85A10A0F85210FFF7B0FC10BDB9
:102B9000016820220B6823F490730B6001688B6836
:102BA00023F001038B6080F86A20704710B590F81D
:102BB0006A10B0F85C202229016805D0886940F0CD
:102BC00008008861022010BD8368B3F5805F01D1E1
:102BD000036973B14B6A416D13404A1C42650B7027
:102BE000B0F85A10491E0904090CA0F85A1008D070
:102BF00016E04B6A416D13400B80416D891C4165A5
:102C0000EEE7016820220B6823F490730B600168E3
:102C10008B6823F001038B6080F86A20FFF7EAFDE0
:102C2000002010BD2DE9F04704468068874B884F8F
:102C30002668D4E90415E2690843D6F800C01021DB
:102C400015430022284315460CEA030C814B4CEA3D
:102C5000000CC6F800C04FF400492068D4F80CC03E
:102C6000466826F4405646EA0C0646602668D4F8C4
:102C70002080A069D6F808C040EA08002CF4306C27
:102C80004CEA000CC6F808C02068B8420AD11B689C
:102C900013F0030352D0012B7AD0022B76D0032BF2
:102CA00079D177E06C4EB0420AD11B6813F00C0367
:102CB0006AD0042B6CD0082B68D00C2B6BD169E048
:102CC000664EB0420AD11B6813F030035CD0102B63
:102CD0005ED0202B5AD0302B5DD15BE0604EB042ED
:102CE0000AD11B6813F0C0034ED0402B50D0802B6C
:102CF0004CD0C02B4FD14DE05A4EB0420DD11B6885
:102D000013F4407340D0B3F5807F41D0B3F5007F1A
:102D10003CD0B3F5407F3ED13CE0534EB0420FD1A2
:102D20001B6813F4406309D0B3F5806F30D0B3F55E
:102D3000006F2BD0B3F5406F2DD12BE001212AE09D
:102D40004A4EB0420DD11B6813F440531CD0B3F56A
:102D5000805F1DD0B3F5005F18D0B3F5405F1AD186
:102D600018E0434EB04216D11B6813F440430BD019
:102D7000B3F5804F0CD04B4508D0B3F5404F0AD186
:102D800008E005E002E0FFE7002104E0022102E0A4
:102D9000042100E00821E6694E452AD109291FD205
:102DA000DFE801F00508141E171E1E1E1A00FFF7AB
:102DB0007DF901E0FFF792F90146D4F804004900DB
:102DC00001EB5001B1FBF0F082B20AE029496068E2
:102DD000F6E7FFF79BF9EFE760684FF48031EFE724
:102DE0000125216822F00F00C2F342021043C8609F
:102DF00028E0092925D2DFE801F005080B2410247A
:102E000024241C00FFF752F909E0FFF767F906E0F8
:102E10006168194A02EB51020EE0FFF777F90146AB
:102E2000D4E9002001EB5001B1FBF0F080B2D0609A
:102E300008E0616809EB5102B2FBF1F189B2C160AF
:102E400000E001252846BDE8F0870000F369FFEFA8
:102E5000001001409038024000440040004800400B
:102E6000004C004000500040001401400078004039
:102E7000007C00400048E8010024F4002DE9F04106
:102E8000984617460E460446069D1DE0681C1BD05A
:102E90002DB1FEF7B1FFA0EB0800A84214D32168C2
:102EA000202000220B6823F4D0730B6021688B680C
:102EB00023F001038B6084F8690084F86A00032022
:102EC00084F86820BDE8F0812068C06936EA000017
:102ED00004D00020B842D9D00020F3E70120F9E760
:102EE00070B50D4D00240D48FFF708FB02E0641C8F
:102EF000AC4204D80948FFF7FBFA2028F7D1002498
:102F000002E0641CAC4206D8054901220348FFF7E1
:102F100025FC0028F5D170BDFFFF0100D80002207C
:102F200008000220FEE703B401984100009850EA2F
:102F3000C12018BF04204A0D18BF40F0010040F224
:102F4000FF72B2EB515F08BF40F00200012808BFDA
:102F5000052002B0704730380A2801D2012070479E
:102F600000207047704700000349CA695206FCD52B
:102F7000C2B28A62704700000010014086B0FFF7BD
:102F80007FFCFEF747FF0923022219204FF4D87176
:102F9000FFF7B6FC2F48016841F0020101600068AC
:102FA00000F0020005904FF4E13000F07BF80320C0
:102FB000294C0121CDE90210CDE9000169462046E6
:102FC000FEF728FE002220460321FEF70FFF6FF0D8
:102FD0007E452846FEF705FE012220460321FEF726
:102FE00005FF1F49262203201CA300F041F80122FF
:102FF00020461146FEF7FAFE2846FEF7F2FD184974
:103000002922032017A300F033F8002220460121D3
:10301000FEF7ECFE2846FEF7E4FD11492C220320C2
:1030200011A300F025F8012220460221FEF7DEFE62
:103030002846FEF7D6FD0A492F2203200BA300F0F5
:1030400017F8002220460221FEF7D0FE2846FEF7A0
:10305000C8FDC6E73038024000040240310D0A00C6
:1030600059310008320D0A00330D0A00340D0A00F0
:103070000FB410B5032806AC06DB05A0FDF78AF9EE
:1030800005982146FDF780F910BC5DF814FB00009F
:10309000496E202573206174202564206C696E655B
:1030A000203A00000B49002210B5094C0C230C609B
:1030B000C1E90102CA6008460A61C1E90532FFF7A9
:1030C000D9FABDE81040044901220248FFF746BB87
:1030D00000100140D80002200800022010B500298D
:1030E0000AD00878002807D005487844FEF788F908
:1030F000002801D0002010BD0248784410BD000017
:10310000AA010000A201000010B500290AD0087829
:10311000002807D005487844FEF772F9002801D04E
:10312000002010BD0248784410BD00009A01000044
:10313000920100004FF04070E1EE100A7047FDF779
:103140006BBDFDF79FBE53797374656D436C6F6300
:103150006B5F436F6E666967006D61696E000000AA
:103160000000000000000102030406070809000037
:103170000000010203040400000800000000000039
:10318000000200010000100000000000000000002C
:10319000303132333435363738394142434445468D
:1031A0004030580030313233343536373839616287
:1031B00063646566403078003031323334353637F9
:1031C0003839616263646566787000303132333457
:1031D000353637383941424344454658500000009F
:1031E00002400000000000A00000000005400000B8
:1031F000000000C8000000000C4000000000409CDF
:1032000000000000194000000020BCBE00000000CB
:1032100034400000BFC91B8E00000004B540000010
:10322000504BCFD06607E2CF010000006C41000098
:103230003E8251AADFEEA73401000000D94200000F
:10324000DCB5A0E23A301F97FFFFFFFFB445000056
:10325000FD25A0C8E9A3C14FFFFFFFFFFF3F00000E
:103260000000008000000000FF3F00000000008020
:1032700000000000C0330008000002201000000021
:1032800034020008D0330008100002209807000024
:10329000500200081C00000043000000F8FFFFFF80
:1032A0000C0000000E0000000F0000002E000000C7
:1032B0001001000043000000F8FFFFFF0040404005
:1032C00040404040404041414141414040404040F9
:1032D00040404040404040404040404040050202A5
:1032E0000202020202020202020202020220202064
:1032F00020202020202020020202020202029090C0
:1033000090909090101010101010101010101010BD
:103310001010101010101010020202020202888811
:10332000888888880808080808080808080808081D
:103330000808080808080808020202024000000005
:10334000000000000000000000000000000000007D
:10335000000000000000000000000000000000006D
:10336000000000000000000000000000000000005D
:10337000000000000000000000000000000000004D
:10338000000000000000000000000000000000003D
:10339000000000000000000000000000000000002D
:1033A000000000000000000000000000000000001D
:1033B000000000000000000000000000000000000D
:1033C000000000000024F4000000000000000000E5
:04000005080001F9F5
:00000001FF
